{
  "_format": "hh-sol-artifact-1",
  "contractName": "CrossFISwap",
  "sourceName": "contracts/SwapContract.sol",
  "abi": [
    {
      "inputs": [
        {
          "internalType": "address",
          "name": "_tUSDC",
          "type": "address"
        }
      ],
      "stateMutability": "nonpayable",
      "type": "constructor"
    },
    {
      "inputs": [],
      "name": "ExcessiveSlippage",
      "type": "error"
    },
    {
      "inputs": [],
      "name": "InsufficientInputAmount",
      "type": "error"
    },
    {
      "inputs": [],
      "name": "InsufficientLiquidity",
      "type": "error"
    },
    {
      "inputs": [],
      "name": "InsufficientOutputAmount",
      "type": "error"
    },
    {
      "inputs": [],
      "name": "InvalidTokenAddress",
      "type": "error"
    },
    {
      "inputs": [],
      "name": "TransferFailed",
      "type": "error"
    },
    {
      "anonymous": false,
      "inputs": [
        {
          "indexed": true,
          "internalType": "address",
          "name": "provider",
          "type": "address"
        },
        {
          "indexed": false,
          "internalType": "uint256",
          "name": "xfiAmount",
          "type": "uint256"
        },
        {
          "indexed": false,
          "internalType": "uint256",
          "name": "tusdcAmount",
          "type": "uint256"
        },
        {
          "indexed": false,
          "internalType": "uint256",
          "name": "liquidity",
          "type": "uint256"
        }
      ],
      "name": "LiquidityAdded",
      "type": "event"
    },
    {
      "anonymous": false,
      "inputs": [
        {
          "indexed": true,
          "internalType": "address",
          "name": "provider",
          "type": "address"
        },
        {
          "indexed": false,
          "internalType": "uint256",
          "name": "xfiAmount",
          "type": "uint256"
        },
        {
          "indexed": false,
          "internalType": "uint256",
          "name": "tusdcAmount",
          "type": "uint256"
        },
        {
          "indexed": false,
          "internalType": "uint256",
          "name": "liquidity",
          "type": "uint256"
        }
      ],
      "name": "LiquidityRemoved",
      "type": "event"
    },
    {
      "anonymous": false,
      "inputs": [
        {
          "indexed": true,
          "internalType": "address",
          "name": "previousOwner",
          "type": "address"
        },
        {
          "indexed": true,
          "internalType": "address",
          "name": "newOwner",
          "type": "address"
        }
      ],
      "name": "OwnershipTransferred",
      "type": "event"
    },
    {
      "anonymous": false,
      "inputs": [
        {
          "indexed": false,
          "internalType": "address",
          "name": "account",
          "type": "address"
        }
      ],
      "name": "Paused",
      "type": "event"
    },
    {
      "anonymous": false,
      "inputs": [
        {
          "indexed": false,
          "internalType": "uint256",
          "name": "newXFIPrice",
          "type": "uint256"
        },
        {
          "indexed": false,
          "internalType": "uint256",
          "name": "timestamp",
          "type": "uint256"
        }
      ],
      "name": "PriceUpdate",
      "type": "event"
    },
    {
      "anonymous": false,
      "inputs": [
        {
          "indexed": true,
          "internalType": "address",
          "name": "user",
          "type": "address"
        },
        {
          "indexed": true,
          "internalType": "address",
          "name": "tokenIn",
          "type": "address"
        },
        {
          "indexed": true,
          "internalType": "address",
          "name": "tokenOut",
          "type": "address"
        },
        {
          "indexed": false,
          "internalType": "uint256",
          "name": "amountIn",
          "type": "uint256"
        },
        {
          "indexed": false,
          "internalType": "uint256",
          "name": "amountOut",
          "type": "uint256"
        },
        {
          "indexed": false,
          "internalType": "uint256",
          "name": "fee",
          "type": "uint256"
        }
      ],
      "name": "Swap",
      "type": "event"
    },
    {
      "anonymous": false,
      "inputs": [
        {
          "indexed": false,
          "internalType": "address",
          "name": "account",
          "type": "address"
        }
      ],
      "name": "Unpaused",
      "type": "event"
    },
    {
      "inputs": [],
      "name": "FEE_DENOMINATOR",
      "outputs": [
        {
          "internalType": "uint256",
          "name": "",
          "type": "uint256"
        }
      ],
      "stateMutability": "view",
      "type": "function"
    },
    {
      "inputs": [],
      "name": "MINIMUM_LIQUIDITY",
      "outputs": [
        {
          "internalType": "uint256",
          "name": "",
          "type": "uint256"
        }
      ],
      "stateMutability": "view",
      "type": "function"
    },
    {
      "inputs": [],
      "name": "SWAP_FEE",
      "outputs": [
        {
          "internalType": "uint256",
          "name": "",
          "type": "uint256"
        }
      ],
      "stateMutability": "view",
      "type": "function"
    },
    {
      "inputs": [
        {
          "internalType": "uint256",
          "name": "tusdcAmount",
          "type": "uint256"
        },
        {
          "internalType": "uint256",
          "name": "minXFI",
          "type": "uint256"
        },
        {
          "internalType": "uint256",
          "name": "minTUSDC",
          "type": "uint256"
        }
      ],
      "name": "addLiquidity",
      "outputs": [],
      "stateMutability": "payable",
      "type": "function"
    },
    {
      "inputs": [
        {
          "internalType": "uint256",
          "name": "amountIn",
          "type": "uint256"
        },
        {
          "internalType": "uint256",
          "name": "reserveIn",
          "type": "uint256"
        },
        {
          "internalType": "uint256",
          "name": "reserveOut",
          "type": "uint256"
        }
      ],
      "name": "getAmountOut",
      "outputs": [
        {
          "internalType": "uint256",
          "name": "amountOut",
          "type": "uint256"
        }
      ],
      "stateMutability": "pure",
      "type": "function"
    },
    {
      "inputs": [],
      "name": "getCurrentTUSDCPrice",
      "outputs": [
        {
          "internalType": "uint256",
          "name": "price",
          "type": "uint256"
        }
      ],
      "stateMutability": "view",
      "type": "function"
    },
    {
      "inputs": [],
      "name": "getCurrentXFIPrice",
      "outputs": [
        {
          "internalType": "uint256",
          "name": "price",
          "type": "uint256"
        }
      ],
      "stateMutability": "view",
      "type": "function"
    },
    {
      "inputs": [],
      "name": "getReserves",
      "outputs": [
        {
          "internalType": "uint256",
          "name": "xfiReserve",
          "type": "uint256"
        },
        {
          "internalType": "uint256",
          "name": "tusdcReserve",
          "type": "uint256"
        }
      ],
      "stateMutability": "view",
      "type": "function"
    },
    {
      "inputs": [
        {
          "internalType": "uint256",
          "name": "xfiOut",
          "type": "uint256"
        }
      ],
      "name": "getTUSDCAmountIn",
      "outputs": [
        {
          "internalType": "uint256",
          "name": "tusdcIn",
          "type": "uint256"
        }
      ],
      "stateMutability": "view",
      "type": "function"
    },
    {
      "inputs": [
        {
          "internalType": "uint256",
          "name": "tusdcOut",
          "type": "uint256"
        }
      ],
      "name": "getXFIAmountIn",
      "outputs": [
        {
          "internalType": "uint256",
          "name": "xfiIn",
          "type": "uint256"
        }
      ],
      "stateMutability": "view",
      "type": "function"
    },
    {
      "inputs": [
        {
          "internalType": "address",
          "name": "",
          "type": "address"
        }
      ],
      "name": "liquidityBalance",
      "outputs": [
        {
          "internalType": "uint256",
          "name": "",
          "type": "uint256"
        }
      ],
      "stateMutability": "view",
      "type": "function"
    },
    {
      "inputs": [],
      "name": "owner",
      "outputs": [
        {
          "internalType": "address",
          "name": "",
          "type": "address"
        }
      ],
      "stateMutability": "view",
      "type": "function"
    },
    {
      "inputs": [],
      "name": "pause",
      "outputs": [],
      "stateMutability": "nonpayable",
      "type": "function"
    },
    {
      "inputs": [],
      "name": "paused",
      "outputs": [
        {
          "internalType": "bool",
          "name": "",
          "type": "bool"
        }
      ],
      "stateMutability": "view",
      "type": "function"
    },
    {
      "inputs": [
        {
          "internalType": "uint256",
          "name": "liquidity",
          "type": "uint256"
        },
        {
          "internalType": "uint256",
          "name": "minXFI",
          "type": "uint256"
        },
        {
          "internalType": "uint256",
          "name": "minTUSDC",
          "type": "uint256"
        }
      ],
      "name": "removeLiquidity",
      "outputs": [],
      "stateMutability": "nonpayable",
      "type": "function"
    },
    {
      "inputs": [],
      "name": "renounceOwnership",
      "outputs": [],
      "stateMutability": "nonpayable",
      "type": "function"
    },
    {
      "inputs": [],
      "name": "reserveTUSDC",
      "outputs": [
        {
          "internalType": "uint256",
          "name": "",
          "type": "uint256"
        }
      ],
      "stateMutability": "view",
      "type": "function"
    },
    {
      "inputs": [],
      "name": "reserveXFI",
      "outputs": [
        {
          "internalType": "uint256",
          "name": "",
          "type": "uint256"
        }
      ],
      "stateMutability": "view",
      "type": "function"
    },
    {
      "inputs": [
        {
          "internalType": "uint256",
          "name": "tusdcIn",
          "type": "uint256"
        },
        {
          "internalType": "uint256",
          "name": "minXFIOut",
          "type": "uint256"
        }
      ],
      "name": "swapTUSDCForXFI",
      "outputs": [],
      "stateMutability": "nonpayable",
      "type": "function"
    },
    {
      "inputs": [
        {
          "internalType": "uint256",
          "name": "minTUSDCOut",
          "type": "uint256"
        }
      ],
      "name": "swapXFIForTUSDC",
      "outputs": [],
      "stateMutability": "payable",
      "type": "function"
    },
    {
      "inputs": [],
      "name": "tUSDC",
      "outputs": [
        {
          "internalType": "contract IERC20",
          "name": "",
          "type": "address"
        }
      ],
      "stateMutability": "view",
      "type": "function"
    },
    {
      "inputs": [],
      "name": "totalLiquidity",
      "outputs": [
        {
          "internalType": "uint256",
          "name": "",
          "type": "uint256"
        }
      ],
      "stateMutability": "view",
      "type": "function"
    },
    {
      "inputs": [
        {
          "internalType": "address",
          "name": "newOwner",
          "type": "address"
        }
      ],
      "name": "transferOwnership",
      "outputs": [],
      "stateMutability": "nonpayable",
      "type": "function"
    },
    {
      "inputs": [],
      "name": "unpause",
      "outputs": [],
      "stateMutability": "nonpayable",
      "type": "function"
    },
    {
      "inputs": [],
      "name": "withdrawFees",
      "outputs": [],
      "stateMutability": "nonpayable",
      "type": "function"
    },
    {
      "stateMutability": "payable",
      "type": "receive"
    }
  ],
  "bytecode": "0x60a060405234801561001057600080fd5b50604051620018f0380380620018f0833981016040819052610031916100d6565b600160005561003f33610084565b6001805460ff60a01b191690556001600160a01b03811661007357604051630f58058360e11b815260040160405180910390fd5b6001600160a01b0316608052610106565b600180546001600160a01b038381166001600160a01b0319831681179093556040519116919082907f8be0079c531659141344cd1fd0a4f28419497f9722a3daafe3b4186f6b6457e090600090a35050565b6000602082840312156100e857600080fd5b81516001600160a01b03811681146100ff57600080fd5b9392505050565b6080516117a46200014c6000396000818161041901528181610604015281816106ae01528181610887015281816108cc01528181610bdf0152610ee001526117a46000f3fe60806040526004361061016a5760003560e01c8063715018a6116100d1578063a5e09ac31161008a578063c72e3fdb11610064578063c72e3fdb1461043b578063d73792a914610451578063dd29648014610467578063f2fde38b1461049457600080fd5b8063a5e09ac3146103db578063ba9a7a56146103f1578063c708aa401461040757600080fd5b8063715018a61461032a578063768aebde1461033f5780638456cb5914610354578063857620e1146103695780638da5cb5b146103895780639daebecc146103bb57600080fd5b80633e642714116101235780633e642714146102905780633f4ba83a146102a3578063422f1043146102b8578063476343ee146102cb5780635c975abb146102e057806365175d291461030a57600080fd5b8063054d50d4146101d55780630902f1ac1461020857806311c2591b1461023057806315770f92146102505780633162904b14610266578063367684011461027b57600080fd5b366101d0573330146101ce5760405162461bcd60e51b815260206004820152602260248201527f557365206164644c6971756964697479206f7220737761702066756e6374696f6044820152616e7360f01b60648201526084015b60405180910390fd5b005b600080fd5b3480156101e157600080fd5b506101f56101f03660046115d4565b6104b4565b6040519081526020015b60405180910390f35b34801561021457600080fd5b50600254600354604080519283526020830191909152016101ff565b34801561023c57600080fd5b506101ce61024b366004611600565b610537565b34801561025c57600080fd5b506101f560045481565b34801561027257600080fd5b506101f5610757565b34801561028757600080fd5b506101f5610790565b6101ce61029e366004611622565b6107ba565b3480156102af57600080fd5b506101ce61096e565b6101ce6102c63660046115d4565b610980565b3480156102d757600080fd5b506101ce610c5b565b3480156102ec57600080fd5b50600154600160a01b900460ff1660405190151581526020016101ff565b34801561031657600080fd5b506101f5610325366004611622565b610d06565b34801561033657600080fd5b506101ce610d7f565b34801561034b57600080fd5b506101f5601e81565b34801561036057600080fd5b506101ce610d91565b34801561037557600080fd5b506101ce6103843660046115d4565b610da1565b34801561039557600080fd5b506001546001600160a01b03165b6040516001600160a01b0390911681526020016101ff565b3480156103c757600080fd5b506101f56103d6366004611622565b610fc0565b3480156103e757600080fd5b506101f560035481565b3480156103fd57600080fd5b506101f56103e881565b34801561041357600080fd5b506103a37f000000000000000000000000000000000000000000000000000000000000000081565b34801561044757600080fd5b506101f560025481565b34801561045d57600080fd5b506101f561271081565b34801561047357600080fd5b506101f561048236600461163b565b60056020526000908152604090205481565b3480156104a057600080fd5b506101ce6104af36600461163b565b611010565b6000836000036104c657506000610530565b8215806104d1575081155b156104de57506000610530565b60006127106104ee601e8261167a565b6104f8908761168d565b61050291906116a4565b90506000610510848361168d565b9050600061051e83876116c6565b905061052a81836116a4565b93505050505b9392505050565b61053f611086565b6105476110df565b816000036105685760405163098fb56160e01b815260040160405180910390fd5b6000610579836003546002546104b4565b90508181101561059c576040516397c7f53760e01b815260040160405180910390fd5b60006127106105ac601e8661168d565b6105b691906116a4565b905060006105c4828661167a565b905080600360008282546105d891906116c6565b9250508190555082600260008282546105f1919061167a565b9091555061062c90506001600160a01b037f00000000000000000000000000000000000000000000000000000000000000001633308861112c565b604051600090339085908381818185875af1925050503d806000811461066e576040519150601f19603f3d011682016040523d82523d6000602084013e610673565b606091505b5050905080610695576040516312171d8360e31b815260040160405180910390fd5b60408051878152602081018690529081018490526000907f00000000000000000000000000000000000000000000000000000000000000006001600160a01b03169033907fd6d34547c69c5ee3d2667625c188acf1006abb93e0ee7cf03925c67cf77604139060600160405180910390a47f92664190cca12aca9cd5309d87194bdda75bb51362d71c06e1a6f75c7c76571161072f610790565b604080519182524260208301520160405180910390a1505050506107536001600055565b5050565b60006003546000036107695750600090565b60035460025461078190670de0b6b3a764000061168d565b61078b91906116a4565b905090565b60006002546000036107a25750600090565b60025460035461078190670de0b6b3a764000061168d565b6107c2611086565b6107ca6110df565b346000036107eb5760405163098fb56160e01b815260040160405180910390fd5b60006107fc346002546003546104b4565b90508181101561081f576040516397c7f53760e01b815260040160405180910390fd5b600061271061082f601e3461168d565b61083991906116a4565b90506000610847823461167a565b9050806002600082825461085b91906116c6565b925050819055508260036000828254610874919061167a565b909155506108ae90506001600160a01b037f000000000000000000000000000000000000000000000000000000000000000016338561119d565b60408051348152602081018590529081018390526001600160a01b037f0000000000000000000000000000000000000000000000000000000000000000169060009033907fd6d34547c69c5ee3d2667625c188acf1006abb93e0ee7cf03925c67cf77604139060600160405180910390a47f92664190cca12aca9cd5309d87194bdda75bb51362d71c06e1a6f75c7c765711610948610790565b604080519182524260208301520160405180910390a150505061096b6001600055565b50565b6109766111cd565b61097e611227565b565b610988611086565b6109906110df565b34158061099b575082155b156109b95760405163098fb56160e01b815260040160405180910390fd5b60045434906000908103610a18576103e86109dc6109d7878561168d565b61127c565b6109e6919061167a565b905060008111610a095760405163bb55fd2760e01b815260040160405180910390fd5b60028290556003859055610b96565b600060025460035484610a2b919061168d565b610a3591906116a4565b9050600060035460025488610a4a919061168d565b610a5491906116a4565b9050868211610a865784821015610a7e576040516397c7f53760e01b815260040160405180910390fd5b819650610b24565b85811015610aa7576040516397c7f53760e01b815260040160405180910390fd5b80935083341115610b2457600033610abf863461167a565b604051600081818185875af1925050503d8060008114610afb576040519150601f19603f3d011682016040523d82523d6000602084013e610b00565b606091505b5050905080610b22576040516312171d8360e31b815260040160405180910390fd5b505b610b6160025460045486610b38919061168d565b610b4291906116a4565b600354600454610b52908b61168d565b610b5c91906116a4565b6112dd565b92508360026000828254610b7591906116c6565b925050819055508660036000828254610b8e91906116c6565b909155505050505b8060046000828254610ba891906116c6565b90915550503360009081526005602052604081208054839290610bcc9084906116c6565b90915550610c0790506001600160a01b037f00000000000000000000000000000000000000000000000000000000000000001633308861112c565b604080518381526020810187905290810182905233907f64b83944e79c3ce8d4c297411de637c3e102d064677aac0c163976ebdcd6f50e9060600160405180910390a25050610c566001600055565b505050565b610c636111cd565b600254479081111561096b57600060025482610c7f919061167a565b90506000610c956001546001600160a01b031690565b6001600160a01b03168260405160006040518083038185875af1925050503d8060008114610cdf576040519150601f19603f3d011682016040523d82523d6000602084013e610ce4565b606091505b5050905080610c56576040516312171d8360e31b815260040160405180910390fd5b60006003548210610d1a5750600019919050565b600061271083600254610d2d919061168d565b610d37919061168d565b90506000610d48601e61271061167a565b84600354610d56919061167a565b610d60919061168d565b9050610d6c81836116a4565b610d779060016116c6565b949350505050565b610d876111cd565b61097e60006112f7565b610d996111cd565b61097e611349565b610da9611086565b82600003610dca5760405163098fb56160e01b815260040160405180910390fd5b33600090815260056020526040902054831115610dfa5760405163bb55fd2760e01b815260040160405180910390fd5b600060045460025485610e0d919061168d565b610e1791906116a4565b9050600060045460035486610e2c919061168d565b610e3691906116a4565b905083821080610e4557508281105b15610e63576040516397c7f53760e01b815260040160405180910390fd5b3360009081526005602052604081208054879290610e8290849061167a565b925050819055508460046000828254610e9b919061167a565b925050819055508160026000828254610eb4919061167a565b925050819055508060036000828254610ecd919061167a565b90915550610f0790506001600160a01b037f000000000000000000000000000000000000000000000000000000000000000016338361119d565b604051600090339084908381818185875af1925050503d8060008114610f49576040519150601f19603f3d011682016040523d82523d6000602084013e610f4e565b606091505b5050905080610f70576040516312171d8360e31b815260040160405180910390fd5b604080518481526020810184905290810187905233907f1dc8bb69df2b8e91fbdcbfcf93d951b3f0000f085a95fe3f7946d6161439245d9060600160405180910390a2505050610c566001600055565b60006002548210610fd45750600019919050565b600061271083600354610fe7919061168d565b610ff1919061168d565b90506000611002601e61271061167a565b84600254610d56919061167a565b6110186111cd565b6001600160a01b03811661107d5760405162461bcd60e51b815260206004820152602660248201527f4f776e61626c653a206e6577206f776e657220697320746865207a65726f206160448201526564647265737360d01b60648201526084016101c5565b61096b816112f7565b6002600054036110d85760405162461bcd60e51b815260206004820152601f60248201527f5265656e7472616e637947756172643a207265656e7472616e742063616c6c0060448201526064016101c5565b6002600055565b600154600160a01b900460ff161561097e5760405162461bcd60e51b815260206004820152601060248201526f14185d5cd8589b194e881c185d5cd95960821b60448201526064016101c5565b6040516001600160a01b03808516602483015283166044820152606481018290526111979085906323b872dd60e01b906084015b60408051601f198184030181529190526020810180516001600160e01b03166001600160e01b03199093169290921790915261138c565b50505050565b6040516001600160a01b038316602482015260448101829052610c5690849063a9059cbb60e01b90606401611160565b6001546001600160a01b0316331461097e5760405162461bcd60e51b815260206004820181905260248201527f4f776e61626c653a2063616c6c6572206973206e6f7420746865206f776e657260448201526064016101c5565b61122f611461565b6001805460ff60a01b191690557f5db9ee0a495bf2e6ff9c91a7834c1ba4fdd244a5e8aa4e537bd38aeae4b073aa335b6040516001600160a01b03909116815260200160405180910390a1565b60008160000361128e57506000919050565b6000600261129d8460016116c6565b6112a791906116a4565b9050825b808210156105305750806002816112c281876116a4565b6112cc91906116c6565b6112d691906116a4565b91506112ab565b60008183106112ec57816112ee565b825b90505b92915050565b600180546001600160a01b038381166001600160a01b0319831681179093556040519116919082907f8be0079c531659141344cd1fd0a4f28419497f9722a3daafe3b4186f6b6457e090600090a35050565b6113516110df565b6001805460ff60a01b1916600160a01b1790557f62e78cea01bee320cd4e420270b5ea74000d11b0c9f74754ebdbfc544b05a25861125f3390565b60006113e1826040518060400160405280602081526020017f5361666545524332303a206c6f772d6c6576656c2063616c6c206661696c6564815250856001600160a01b03166114b19092919063ffffffff16565b905080516000148061140257508080602001905181019061140291906116d9565b610c565760405162461bcd60e51b815260206004820152602a60248201527f5361666545524332303a204552433230206f7065726174696f6e20646964206e6044820152691bdd081cdd58d8d9595960b21b60648201526084016101c5565b600154600160a01b900460ff1661097e5760405162461bcd60e51b815260206004820152601460248201527314185d5cd8589b194e881b9bdd081c185d5cd95960621b60448201526064016101c5565b6060610d77848460008585600080866001600160a01b031685876040516114d8919061171f565b60006040518083038185875af1925050503d8060008114611515576040519150601f19603f3d011682016040523d82523d6000602084013e61151a565b606091505b509150915061152b87838387611536565b979650505050505050565b606083156115a557825160000361159e576001600160a01b0385163b61159e5760405162461bcd60e51b815260206004820152601d60248201527f416464726573733a2063616c6c20746f206e6f6e2d636f6e747261637400000060448201526064016101c5565b5081610d77565b610d7783838151156115ba5781518083602001fd5b8060405162461bcd60e51b81526004016101c5919061173b565b6000806000606084860312156115e957600080fd5b505081359360208301359350604090920135919050565b6000806040838503121561161357600080fd5b50508035926020909101359150565b60006020828403121561163457600080fd5b5035919050565b60006020828403121561164d57600080fd5b81356001600160a01b038116811461053057600080fd5b634e487b7160e01b600052601160045260246000fd5b818103818111156112f1576112f1611664565b80820281158282048414176112f1576112f1611664565b6000826116c157634e487b7160e01b600052601260045260246000fd5b500490565b808201808211156112f1576112f1611664565b6000602082840312156116eb57600080fd5b8151801515811461053057600080fd5b60005b838110156117165781810151838201526020016116fe565b50506000910152565b600082516117318184602087016116fb565b9190910192915050565b602081526000825180602084015261175a8160408501602087016116fb565b601f01601f1916919091016040019291505056fea2646970667358221220fe0eab6d7d5252fe03b27ff6aa47321324458fad5a3b3a6839ff673ca4e91eb364736f6c63430008130033",
  "linkReferences": {},
  "deployedLinkReferences": {}
}