{"contracts/SwapContract.sol":{"CrossFISwap":{"abi":[{"inputs":[{"internalType":"address","name":"_tUSDC","type":"address"}],"stateMutability":"nonpayable","type":"constructor"},{"inputs":[],"name":"ExcessiveSlippage","type":"error"},{"inputs":[],"name":"InsufficientInputAmount","type":"error"},{"inputs":[],"name":"InsufficientLiquidity","type":"error"},{"inputs":[],"name":"InsufficientOutputAmount","type":"error"},{"inputs":[],"name":"InvalidTokenAddress","type":"error"},{"inputs":[],"name":"TransferFailed","type":"error"},{"anonymous":false,"inputs":[{"indexed":true,"internalType":"address","name":"provider","type":"address"},{"indexed":false,"internalType":"uint256","name":"xfiAmount","type":"uint256"},{"indexed":false,"internalType":"uint256","name":"tusdcAmount","type":"uint256"},{"indexed":false,"internalType":"uint256","name":"liquidity","type":"uint256"}],"name":"LiquidityAdded","type":"event"},{"anonymous":false,"inputs":[{"indexed":true,"internalType":"address","name":"provider","type":"address"},{"indexed":false,"internalType":"uint256","name":"xfiAmount","type":"uint256"},{"indexed":false,"internalType":"uint256","name":"tusdcAmount","type":"uint256"},{"indexed":false,"internalType":"uint256","name":"liquidity","type":"uint256"}],"name":"LiquidityRemoved","type":"event"},{"anonymous":false,"inputs":[{"indexed":true,"internalType":"address","name":"previousOwner","type":"address"},{"indexed":true,"internalType":"address","name":"newOwner","type":"address"}],"name":"OwnershipTransferred","type":"event"},{"anonymous":false,"inputs":[{"indexed":false,"internalType":"address","name":"account","type":"address"}],"name":"Paused","type":"event"},{"anonymous":false,"inputs":[{"indexed":false,"internalType":"uint256","name":"newXFIPrice","type":"uint256"},{"indexed":false,"internalType":"uint256","name":"timestamp","type":"uint256"}],"name":"PriceUpdate","type":"event"},{"anonymous":false,"inputs":[{"indexed":true,"internalType":"address","name":"user","type":"address"},{"indexed":true,"internalType":"address","name":"tokenIn","type":"address"},{"indexed":true,"internalType":"address","name":"tokenOut","type":"address"},{"indexed":false,"internalType":"uint256","name":"amountIn","type":"uint256"},{"indexed":false,"internalType":"uint256","name":"amountOut","type":"uint256"},{"indexed":false,"internalType":"uint256","name":"fee","type":"uint256"}],"name":"Swap","type":"event"},{"anonymous":false,"inputs":[{"indexed":false,"internalType":"address","name":"account","type":"address"}],"name":"Unpaused","type":"event"},{"inputs":[],"name":"FEE_DENOMINATOR","outputs":[{"internalType":"uint256","name":"","type":"uint256"}],"stateMutability":"view","type":"function"},{"inputs":[],"name":"MINIMUM_LIQUIDITY","outputs":[{"internalType":"uint256","name":"","type":"uint256"}],"stateMutability":"view","type":"function"},{"inputs":[],"name":"SWAP_FEE","outputs":[{"internalType":"uint256","name":"","type":"uint256"}],"stateMutability":"view","type":"function"},{"inputs":[{"internalType":"uint256","name":"tusdcAmount","type":"uint256"},{"internalType":"uint256","name":"minXFI","type":"uint256"},{"internalType":"uint256","name":"minTUSDC","type":"uint256"}],"name":"addLiquidity","outputs":[],"stateMutability":"payable","type":"function"},{"inputs":[{"internalType":"uint256","name":"amountIn","type":"uint256"},{"internalType":"uint256","name":"reserveIn","type":"uint256"},{"internalType":"uint256","name":"reserveOut","type":"uint256"}],"name":"getAmountOut","outputs":[{"internalType":"uint256","name":"amountOut","type":"uint256"}],"stateMutability":"pure","type":"function"},{"inputs":[],"name":"getCurrentTUSDCPrice","outputs":[{"internalType":"uint256","name":"price","type":"uint256"}],"stateMutability":"view","type":"function"},{"inputs":[],"name":"getCurrentXFIPrice","outputs":[{"internalType":"uint256","name":"price","type":"uint256"}],"stateMutability":"view","type":"function"},{"inputs":[],"name":"getReserves","outputs":[{"internalType":"uint256","name":"xfiReserve","type":"uint256"},{"internalType":"uint256","name":"tusdcReserve","type":"uint256"}],"stateMutability":"view","type":"function"},{"inputs":[{"internalType":"uint256","name":"xfiOut","type":"uint256"}],"name":"getTUSDCAmountIn","outputs":[{"internalType":"uint256","name":"tusdcIn","type":"uint256"}],"stateMutability":"view","type":"function"},{"inputs":[{"internalType":"uint256","name":"tusdcOut","type":"uint256"}],"name":"getXFIAmountIn","outputs":[{"internalType":"uint256","name":"xfiIn","type":"uint256"}],"stateMutability":"view","type":"function"},{"inputs":[{"internalType":"address","name":"","type":"address"}],"name":"liquidityBalance","outputs":[{"internalType":"uint256","name":"","type":"uint256"}],"stateMutability":"view","type":"function"},{"inputs":[],"name":"owner","outputs":[{"internalType":"address","name":"","type":"address"}],"stateMutability":"view","type":"function"},{"inputs":[],"name":"pause","outputs":[],"stateMutability":"nonpayable","type":"function"},{"inputs":[],"name":"paused","outputs":[{"internalType":"bool","name":"","type":"bool"}],"stateMutability":"view","type":"function"},{"inputs":[{"internalType":"uint256","name":"liquidity","type":"uint256"},{"internalType":"uint256","name":"minXFI","type":"uint256"},{"internalType":"uint256","name":"minTUSDC","type":"uint256"}],"name":"removeLiquidity","outputs":[],"stateMutability":"nonpayable","type":"function"},{"inputs":[],"name":"renounceOwnership","outputs":[],"stateMutability":"nonpayable","type":"function"},{"inputs":[],"name":"reserveTUSDC","outputs":[{"internalType":"uint256","name":"","type":"uint256"}],"stateMutability":"view","type":"function"},{"inputs":[],"name":"reserveXFI","outputs":[{"internalType":"uint256","name":"","type":"uint256"}],"stateMutability":"view","type":"function"},{"inputs":[{"internalType":"uint256","name":"tusdcIn","type":"uint256"},{"internalType":"uint256","name":"minXFIOut","type":"uint256"}],"name":"swapTUSDCForXFI","outputs":[],"stateMutability":"nonpayable","type":"function"},{"inputs":[{"internalType":"uint256","name":"minTUSDCOut","type":"uint256"}],"name":"swapXFIForTUSDC","outputs":[],"stateMutability":"payable","type":"function"},{"inputs":[],"name":"tUSDC","outputs":[{"internalType":"contract IERC20","name":"","type":"address"}],"stateMutability":"view","type":"function"},{"inputs":[],"name":"totalLiquidity","outputs":[{"internalType":"uint256","name":"","type":"uint256"}],"stateMutability":"view","type":"function"},{"inputs":[{"internalType":"address","name":"newOwner","type":"address"}],"name":"transferOwnership","outputs":[],"stateMutability":"nonpayable","type":"function"},{"inputs":[],"name":"unpause","outputs":[],"stateMutability":"nonpayable","type":"function"},{"inputs":[],"name":"withdrawFees","outputs":[],"stateMutability":"nonpayable","type":"function"},{"stateMutability":"payable","type":"receive"}],"evm":{"bytecode":{"linkReferences":{},"object":"60a060405234801561001057600080fd5b50604051620018f0380380620018f0833981016040819052610031916100d6565b600160005561003f33610084565b6001805460ff60a01b191690556001600160a01b03811661007357604051630f58058360e11b815260040160405180910390fd5b6001600160a01b0316608052610106565b600180546001600160a01b038381166001600160a01b0319831681179093556040519116919082907f8be0079c531659141344cd1fd0a4f28419497f9722a3daafe3b4186f6b6457e090600090a35050565b6000602082840312156100e857600080fd5b81516001600160a01b03811681146100ff57600080fd5b9392505050565b6080516117a46200014c6000396000818161041901528181610604015281816106ae01528181610887015281816108cc01528181610bdf0152610ee001526117a46000f3fe60806040526004361061016a5760003560e01c8063715018a6116100d1578063a5e09ac31161008a578063c72e3fdb11610064578063c72e3fdb1461043b578063d73792a914610451578063dd29648014610467578063f2fde38b1461049457600080fd5b8063a5e09ac3146103db578063ba9a7a56146103f1578063c708aa401461040757600080fd5b8063715018a61461032a578063768aebde1461033f5780638456cb5914610354578063857620e1146103695780638da5cb5b146103895780639daebecc146103bb57600080fd5b80633e642714116101235780633e642714146102905780633f4ba83a146102a3578063422f1043146102b8578063476343ee146102cb5780635c975abb146102e057806365175d291461030a57600080fd5b8063054d50d4146101d55780630902f1ac1461020857806311c2591b1461023057806315770f92146102505780633162904b14610266578063367684011461027b57600080fd5b366101d0573330146101ce5760405162461bcd60e51b815260206004820152602260248201527f557365206164644c6971756964697479206f7220737761702066756e6374696f6044820152616e7360f01b60648201526084015b60405180910390fd5b005b600080fd5b3480156101e157600080fd5b506101f56101f03660046115d4565b6104b4565b6040519081526020015b60405180910390f35b34801561021457600080fd5b50600254600354604080519283526020830191909152016101ff565b34801561023c57600080fd5b506101ce61024b366004611600565b610537565b34801561025c57600080fd5b506101f560045481565b34801561027257600080fd5b506101f5610757565b34801561028757600080fd5b506101f5610790565b6101ce61029e366004611622565b6107ba565b3480156102af57600080fd5b506101ce61096e565b6101ce6102c63660046115d4565b610980565b3480156102d757600080fd5b506101ce610c5b565b3480156102ec57600080fd5b50600154600160a01b900460ff1660405190151581526020016101ff565b34801561031657600080fd5b506101f5610325366004611622565b610d06565b34801561033657600080fd5b506101ce610d7f565b34801561034b57600080fd5b506101f5601e81565b34801561036057600080fd5b506101ce610d91565b34801561037557600080fd5b506101ce6103843660046115d4565b610da1565b34801561039557600080fd5b506001546001600160a01b03165b6040516001600160a01b0390911681526020016101ff565b3480156103c757600080fd5b506101f56103d6366004611622565b610fc0565b3480156103e757600080fd5b506101f560035481565b3480156103fd57600080fd5b506101f56103e881565b34801561041357600080fd5b506103a37f000000000000000000000000000000000000000000000000000000000000000081565b34801561044757600080fd5b506101f560025481565b34801561045d57600080fd5b506101f561271081565b34801561047357600080fd5b506101f561048236600461163b565b60056020526000908152604090205481565b3480156104a057600080fd5b506101ce6104af36600461163b565b611010565b6000836000036104c657506000610530565b8215806104d1575081155b156104de57506000610530565b60006127106104ee601e8261167a565b6104f8908761168d565b61050291906116a4565b90506000610510848361168d565b9050600061051e83876116c6565b905061052a81836116a4565b93505050505b9392505050565b61053f611086565b6105476110df565b816000036105685760405163098fb56160e01b815260040160405180910390fd5b6000610579836003546002546104b4565b90508181101561059c576040516397c7f53760e01b815260040160405180910390fd5b60006127106105ac601e8661168d565b6105b691906116a4565b905060006105c4828661167a565b905080600360008282546105d891906116c6565b9250508190555082600260008282546105f1919061167a565b9091555061062c90506001600160a01b037f00000000000000000000000000000000000000000000000000000000000000001633308861112c565b604051600090339085908381818185875af1925050503d806000811461066e576040519150601f19603f3d011682016040523d82523d6000602084013e610673565b606091505b5050905080610695576040516312171d8360e31b815260040160405180910390fd5b60408051878152602081018690529081018490526000907f00000000000000000000000000000000000000000000000000000000000000006001600160a01b03169033907fd6d34547c69c5ee3d2667625c188acf1006abb93e0ee7cf03925c67cf77604139060600160405180910390a47f92664190cca12aca9cd5309d87194bdda75bb51362d71c06e1a6f75c7c76571161072f610790565b604080519182524260208301520160405180910390a1505050506107536001600055565b5050565b60006003546000036107695750600090565b60035460025461078190670de0b6b3a764000061168d565b61078b91906116a4565b905090565b60006002546000036107a25750600090565b60025460035461078190670de0b6b3a764000061168d565b6107c2611086565b6107ca6110df565b346000036107eb5760405163098fb56160e01b815260040160405180910390fd5b60006107fc346002546003546104b4565b90508181101561081f576040516397c7f53760e01b815260040160405180910390fd5b600061271061082f601e3461168d565b61083991906116a4565b90506000610847823461167a565b9050806002600082825461085b91906116c6565b925050819055508260036000828254610874919061167a565b909155506108ae90506001600160a01b037f000000000000000000000000000000000000000000000000000000000000000016338561119d565b60408051348152602081018590529081018390526001600160a01b037f0000000000000000000000000000000000000000000000000000000000000000169060009033907fd6d34547c69c5ee3d2667625c188acf1006abb93e0ee7cf03925c67cf77604139060600160405180910390a47f92664190cca12aca9cd5309d87194bdda75bb51362d71c06e1a6f75c7c765711610948610790565b604080519182524260208301520160405180910390a150505061096b6001600055565b50565b6109766111cd565b61097e611227565b565b610988611086565b6109906110df565b34158061099b575082155b156109b95760405163098fb56160e01b815260040160405180910390fd5b60045434906000908103610a18576103e86109dc6109d7878561168d565b61127c565b6109e6919061167a565b905060008111610a095760405163bb55fd2760e01b815260040160405180910390fd5b60028290556003859055610b96565b600060025460035484610a2b919061168d565b610a3591906116a4565b9050600060035460025488610a4a919061168d565b610a5491906116a4565b9050868211610a865784821015610a7e576040516397c7f53760e01b815260040160405180910390fd5b819650610b24565b85811015610aa7576040516397c7f53760e01b815260040160405180910390fd5b80935083341115610b2457600033610abf863461167a565b604051600081818185875af1925050503d8060008114610afb576040519150601f19603f3d011682016040523d82523d6000602084013e610b00565b606091505b5050905080610b22576040516312171d8360e31b815260040160405180910390fd5b505b610b6160025460045486610b38919061168d565b610b4291906116a4565b600354600454610b52908b61168d565b610b5c91906116a4565b6112dd565b92508360026000828254610b7591906116c6565b925050819055508660036000828254610b8e91906116c6565b909155505050505b8060046000828254610ba891906116c6565b90915550503360009081526005602052604081208054839290610bcc9084906116c6565b90915550610c0790506001600160a01b037f00000000000000000000000000000000000000000000000000000000000000001633308861112c565b604080518381526020810187905290810182905233907f64b83944e79c3ce8d4c297411de637c3e102d064677aac0c163976ebdcd6f50e9060600160405180910390a25050610c566001600055565b505050565b610c636111cd565b600254479081111561096b57600060025482610c7f919061167a565b90506000610c956001546001600160a01b031690565b6001600160a01b03168260405160006040518083038185875af1925050503d8060008114610cdf576040519150601f19603f3d011682016040523d82523d6000602084013e610ce4565b606091505b5050905080610c56576040516312171d8360e31b815260040160405180910390fd5b60006003548210610d1a5750600019919050565b600061271083600254610d2d919061168d565b610d37919061168d565b90506000610d48601e61271061167a565b84600354610d56919061167a565b610d60919061168d565b9050610d6c81836116a4565b610d779060016116c6565b949350505050565b610d876111cd565b61097e60006112f7565b610d996111cd565b61097e611349565b610da9611086565b82600003610dca5760405163098fb56160e01b815260040160405180910390fd5b33600090815260056020526040902054831115610dfa5760405163bb55fd2760e01b815260040160405180910390fd5b600060045460025485610e0d919061168d565b610e1791906116a4565b9050600060045460035486610e2c919061168d565b610e3691906116a4565b905083821080610e4557508281105b15610e63576040516397c7f53760e01b815260040160405180910390fd5b3360009081526005602052604081208054879290610e8290849061167a565b925050819055508460046000828254610e9b919061167a565b925050819055508160026000828254610eb4919061167a565b925050819055508060036000828254610ecd919061167a565b90915550610f0790506001600160a01b037f000000000000000000000000000000000000000000000000000000000000000016338361119d565b604051600090339084908381818185875af1925050503d8060008114610f49576040519150601f19603f3d011682016040523d82523d6000602084013e610f4e565b606091505b5050905080610f70576040516312171d8360e31b815260040160405180910390fd5b604080518481526020810184905290810187905233907f1dc8bb69df2b8e91fbdcbfcf93d951b3f0000f085a95fe3f7946d6161439245d9060600160405180910390a2505050610c566001600055565b60006002548210610fd45750600019919050565b600061271083600354610fe7919061168d565b610ff1919061168d565b90506000611002601e61271061167a565b84600254610d56919061167a565b6110186111cd565b6001600160a01b03811661107d5760405162461bcd60e51b815260206004820152602660248201527f4f776e61626c653a206e6577206f776e657220697320746865207a65726f206160448201526564647265737360d01b60648201526084016101c5565b61096b816112f7565b6002600054036110d85760405162461bcd60e51b815260206004820152601f60248201527f5265656e7472616e637947756172643a207265656e7472616e742063616c6c0060448201526064016101c5565b6002600055565b600154600160a01b900460ff161561097e5760405162461bcd60e51b815260206004820152601060248201526f14185d5cd8589b194e881c185d5cd95960821b60448201526064016101c5565b6040516001600160a01b03808516602483015283166044820152606481018290526111979085906323b872dd60e01b906084015b60408051601f198184030181529190526020810180516001600160e01b03166001600160e01b03199093169290921790915261138c565b50505050565b6040516001600160a01b038316602482015260448101829052610c5690849063a9059cbb60e01b90606401611160565b6001546001600160a01b0316331461097e5760405162461bcd60e51b815260206004820181905260248201527f4f776e61626c653a2063616c6c6572206973206e6f7420746865206f776e657260448201526064016101c5565b61122f611461565b6001805460ff60a01b191690557f5db9ee0a495bf2e6ff9c91a7834c1ba4fdd244a5e8aa4e537bd38aeae4b073aa335b6040516001600160a01b03909116815260200160405180910390a1565b60008160000361128e57506000919050565b6000600261129d8460016116c6565b6112a791906116a4565b9050825b808210156105305750806002816112c281876116a4565b6112cc91906116c6565b6112d691906116a4565b91506112ab565b60008183106112ec57816112ee565b825b90505b92915050565b600180546001600160a01b038381166001600160a01b0319831681179093556040519116919082907f8be0079c531659141344cd1fd0a4f28419497f9722a3daafe3b4186f6b6457e090600090a35050565b6113516110df565b6001805460ff60a01b1916600160a01b1790557f62e78cea01bee320cd4e420270b5ea74000d11b0c9f74754ebdbfc544b05a25861125f3390565b60006113e1826040518060400160405280602081526020017f5361666545524332303a206c6f772d6c6576656c2063616c6c206661696c6564815250856001600160a01b03166114b19092919063ffffffff16565b905080516000148061140257508080602001905181019061140291906116d9565b610c565760405162461bcd60e51b815260206004820152602a60248201527f5361666545524332303a204552433230206f7065726174696f6e20646964206e6044820152691bdd081cdd58d8d9595960b21b60648201526084016101c5565b600154600160a01b900460ff1661097e5760405162461bcd60e51b815260206004820152601460248201527314185d5cd8589b194e881b9bdd081c185d5cd95960621b60448201526064016101c5565b6060610d77848460008585600080866001600160a01b031685876040516114d8919061171f565b60006040518083038185875af1925050503d8060008114611515576040519150601f19603f3d011682016040523d82523d6000602084013e61151a565b606091505b509150915061152b87838387611536565b979650505050505050565b606083156115a557825160000361159e576001600160a01b0385163b61159e5760405162461bcd60e51b815260206004820152601d60248201527f416464726573733a2063616c6c20746f206e6f6e2d636f6e747261637400000060448201526064016101c5565b5081610d77565b610d7783838151156115ba5781518083602001fd5b8060405162461bcd60e51b81526004016101c5919061173b565b6000806000606084860312156115e957600080fd5b505081359360208301359350604090920135919050565b6000806040838503121561161357600080fd5b50508035926020909101359150565b60006020828403121561163457600080fd5b5035919050565b60006020828403121561164d57600080fd5b81356001600160a01b038116811461053057600080fd5b634e487b7160e01b600052601160045260246000fd5b818103818111156112f1576112f1611664565b80820281158282048414176112f1576112f1611664565b6000826116c157634e487b7160e01b600052601260045260246000fd5b500490565b808201808211156112f1576112f1611664565b6000602082840312156116eb57600080fd5b8151801515811461053057600080fd5b60005b838110156117165781810151838201526020016116fe565b50506000910152565b600082516117318184602087016116fb565b9190910192915050565b602081526000825180602084015261175a8160408501602087016116fb565b601f01601f1916919091016040019291505056fea2646970667358221220fe0eab6d7d5252fe03b27ff6aa47321324458fad5a3b3a6839ff673ca4e91eb364736f6c63430008130033","opcodes":"PUSH1 0xA0 PUSH1 0x40 MSTORE CALLVALUE DUP1 ISZERO PUSH2 0x10 JUMPI PUSH1 0x0 DUP1 REVERT JUMPDEST POP PUSH1 0x40 MLOAD PUSH3 0x18F0 CODESIZE SUB DUP1 PUSH3 0x18F0 DUP4 CODECOPY DUP2 ADD PUSH1 0x40 DUP2 SWAP1 MSTORE PUSH2 0x31 SWAP2 PUSH2 0xD6 JUMP JUMPDEST PUSH1 0x1 PUSH1 0x0 SSTORE PUSH2 0x3F CALLER PUSH2 0x84 JUMP JUMPDEST PUSH1 0x1 DUP1 SLOAD PUSH1 0xFF PUSH1 0xA0 SHL NOT AND SWAP1 SSTORE PUSH1 0x1 PUSH1 0x1 PUSH1 0xA0 SHL SUB DUP2 AND PUSH2 0x73 JUMPI PUSH1 0x40 MLOAD PUSH4 0xF580583 PUSH1 0xE1 SHL DUP2 MSTORE PUSH1 0x4 ADD PUSH1 0x40 MLOAD DUP1 SWAP2 SUB SWAP1 REVERT JUMPDEST PUSH1 0x1 PUSH1 0x1 PUSH1 0xA0 SHL SUB AND PUSH1 0x80 MSTORE PUSH2 0x106 JUMP JUMPDEST PUSH1 0x1 DUP1 SLOAD PUSH1 0x1 PUSH1 0x1 PUSH1 0xA0 SHL SUB DUP4 DUP2 AND PUSH1 0x1 PUSH1 0x1 PUSH1 0xA0 SHL SUB NOT DUP4 AND DUP2 OR SWAP1 SWAP4 SSTORE PUSH1 0x40 MLOAD SWAP2 AND SWAP2 SWAP1 DUP3 SWAP1 PUSH32 0x8BE0079C531659141344CD1FD0A4F28419497F9722A3DAAFE3B4186F6B6457E0 SWAP1 PUSH1 0x0 SWAP1 LOG3 POP POP JUMP JUMPDEST PUSH1 0x0 PUSH1 0x20 DUP3 DUP5 SUB SLT ISZERO PUSH2 0xE8 JUMPI PUSH1 0x0 DUP1 REVERT JUMPDEST DUP2 MLOAD PUSH1 0x1 PUSH1 0x1 PUSH1 0xA0 SHL SUB DUP2 AND DUP2 EQ PUSH2 0xFF JUMPI PUSH1 0x0 DUP1 REVERT JUMPDEST SWAP4 SWAP3 POP POP POP JUMP JUMPDEST PUSH1 0x80 MLOAD PUSH2 0x17A4 PUSH3 0x14C PUSH1 0x0 CODECOPY PUSH1 0x0 DUP2 DUP2 PUSH2 0x419 ADD MSTORE DUP2 DUP2 PUSH2 0x604 ADD MSTORE DUP2 DUP2 PUSH2 0x6AE ADD MSTORE DUP2 DUP2 PUSH2 0x887 ADD MSTORE DUP2 DUP2 PUSH2 0x8CC ADD MSTORE DUP2 DUP2 PUSH2 0xBDF ADD MSTORE PUSH2 0xEE0 ADD MSTORE PUSH2 0x17A4 PUSH1 0x0 RETURN INVALID PUSH1 0x80 PUSH1 0x40 MSTORE PUSH1 0x4 CALLDATASIZE LT PUSH2 0x16A JUMPI PUSH1 0x0 CALLDATALOAD PUSH1 0xE0 SHR DUP1 PUSH4 0x715018A6 GT PUSH2 0xD1 JUMPI DUP1 PUSH4 0xA5E09AC3 GT PUSH2 0x8A JUMPI DUP1 PUSH4 0xC72E3FDB GT PUSH2 0x64 JUMPI DUP1 PUSH4 0xC72E3FDB EQ PUSH2 0x43B JUMPI DUP1 PUSH4 0xD73792A9 EQ PUSH2 0x451 JUMPI DUP1 PUSH4 0xDD296480 EQ PUSH2 0x467 JUMPI DUP1 PUSH4 0xF2FDE38B EQ PUSH2 0x494 JUMPI PUSH1 0x0 DUP1 REVERT JUMPDEST DUP1 PUSH4 0xA5E09AC3 EQ PUSH2 0x3DB JUMPI DUP1 PUSH4 0xBA9A7A56 EQ PUSH2 0x3F1 JUMPI DUP1 PUSH4 0xC708AA40 EQ PUSH2 0x407 JUMPI PUSH1 0x0 DUP1 REVERT JUMPDEST DUP1 PUSH4 0x715018A6 EQ PUSH2 0x32A JUMPI DUP1 PUSH4 0x768AEBDE EQ PUSH2 0x33F JUMPI DUP1 PUSH4 0x8456CB59 EQ PUSH2 0x354 JUMPI DUP1 PUSH4 0x857620E1 EQ PUSH2 0x369 JUMPI DUP1 PUSH4 0x8DA5CB5B EQ PUSH2 0x389 JUMPI DUP1 PUSH4 0x9DAEBECC EQ PUSH2 0x3BB JUMPI PUSH1 0x0 DUP1 REVERT JUMPDEST DUP1 PUSH4 0x3E642714 GT PUSH2 0x123 JUMPI DUP1 PUSH4 0x3E642714 EQ PUSH2 0x290 JUMPI DUP1 PUSH4 0x3F4BA83A EQ PUSH2 0x2A3 JUMPI DUP1 PUSH4 0x422F1043 EQ PUSH2 0x2B8 JUMPI DUP1 PUSH4 0x476343EE EQ PUSH2 0x2CB JUMPI DUP1 PUSH4 0x5C975ABB EQ PUSH2 0x2E0 JUMPI DUP1 PUSH4 0x65175D29 EQ PUSH2 0x30A JUMPI PUSH1 0x0 DUP1 REVERT JUMPDEST DUP1 PUSH4 0x54D50D4 EQ PUSH2 0x1D5 JUMPI DUP1 PUSH4 0x902F1AC EQ PUSH2 0x208 JUMPI DUP1 PUSH4 0x11C2591B EQ PUSH2 0x230 JUMPI DUP1 PUSH4 0x15770F92 EQ PUSH2 0x250 JUMPI DUP1 PUSH4 0x3162904B EQ PUSH2 0x266 JUMPI DUP1 PUSH4 0x36768401 EQ PUSH2 0x27B JUMPI PUSH1 0x0 DUP1 REVERT JUMPDEST CALLDATASIZE PUSH2 0x1D0 JUMPI CALLER ADDRESS EQ PUSH2 0x1CE JUMPI PUSH1 0x40 MLOAD PUSH3 0x461BCD PUSH1 0xE5 SHL DUP2 MSTORE PUSH1 0x20 PUSH1 0x4 DUP3 ADD MSTORE PUSH1 0x22 PUSH1 0x24 DUP3 ADD MSTORE PUSH32 0x557365206164644C6971756964697479206F7220737761702066756E6374696F PUSH1 0x44 DUP3 ADD MSTORE PUSH2 0x6E73 PUSH1 0xF0 SHL PUSH1 0x64 DUP3 ADD MSTORE PUSH1 0x84 ADD JUMPDEST PUSH1 0x40 MLOAD DUP1 SWAP2 SUB SWAP1 REVERT JUMPDEST STOP JUMPDEST PUSH1 0x0 DUP1 REVERT JUMPDEST CALLVALUE DUP1 ISZERO PUSH2 0x1E1 JUMPI PUSH1 0x0 DUP1 REVERT JUMPDEST POP PUSH2 0x1F5 PUSH2 0x1F0 CALLDATASIZE PUSH1 0x4 PUSH2 0x15D4 JUMP JUMPDEST PUSH2 0x4B4 JUMP JUMPDEST PUSH1 0x40 MLOAD SWAP1 DUP2 MSTORE PUSH1 0x20 ADD JUMPDEST PUSH1 0x40 MLOAD DUP1 SWAP2 SUB SWAP1 RETURN JUMPDEST CALLVALUE DUP1 ISZERO PUSH2 0x214 JUMPI PUSH1 0x0 DUP1 REVERT JUMPDEST POP PUSH1 0x2 SLOAD PUSH1 0x3 SLOAD PUSH1 0x40 DUP1 MLOAD SWAP3 DUP4 MSTORE PUSH1 0x20 DUP4 ADD SWAP2 SWAP1 SWAP2 MSTORE ADD PUSH2 0x1FF JUMP JUMPDEST CALLVALUE DUP1 ISZERO PUSH2 0x23C JUMPI PUSH1 0x0 DUP1 REVERT JUMPDEST POP PUSH2 0x1CE PUSH2 0x24B CALLDATASIZE PUSH1 0x4 PUSH2 0x1600 JUMP JUMPDEST PUSH2 0x537 JUMP JUMPDEST CALLVALUE DUP1 ISZERO PUSH2 0x25C JUMPI PUSH1 0x0 DUP1 REVERT JUMPDEST POP PUSH2 0x1F5 PUSH1 0x4 SLOAD DUP2 JUMP JUMPDEST CALLVALUE DUP1 ISZERO PUSH2 0x272 JUMPI PUSH1 0x0 DUP1 REVERT JUMPDEST POP PUSH2 0x1F5 PUSH2 0x757 JUMP JUMPDEST CALLVALUE DUP1 ISZERO PUSH2 0x287 JUMPI PUSH1 0x0 DUP1 REVERT JUMPDEST POP PUSH2 0x1F5 PUSH2 0x790 JUMP JUMPDEST PUSH2 0x1CE PUSH2 0x29E CALLDATASIZE PUSH1 0x4 PUSH2 0x1622 JUMP JUMPDEST PUSH2 0x7BA JUMP JUMPDEST CALLVALUE DUP1 ISZERO PUSH2 0x2AF JUMPI PUSH1 0x0 DUP1 REVERT JUMPDEST POP PUSH2 0x1CE PUSH2 0x96E JUMP JUMPDEST PUSH2 0x1CE PUSH2 0x2C6 CALLDATASIZE PUSH1 0x4 PUSH2 0x15D4 JUMP JUMPDEST PUSH2 0x980 JUMP JUMPDEST CALLVALUE DUP1 ISZERO PUSH2 0x2D7 JUMPI PUSH1 0x0 DUP1 REVERT JUMPDEST POP PUSH2 0x1CE PUSH2 0xC5B JUMP JUMPDEST CALLVALUE DUP1 ISZERO PUSH2 0x2EC JUMPI PUSH1 0x0 DUP1 REVERT JUMPDEST POP PUSH1 0x1 SLOAD PUSH1 0x1 PUSH1 0xA0 SHL SWAP1 DIV PUSH1 0xFF AND PUSH1 0x40 MLOAD SWAP1 ISZERO ISZERO DUP2 MSTORE PUSH1 0x20 ADD PUSH2 0x1FF JUMP JUMPDEST CALLVALUE DUP1 ISZERO PUSH2 0x316 JUMPI PUSH1 0x0 DUP1 REVERT JUMPDEST POP PUSH2 0x1F5 PUSH2 0x325 CALLDATASIZE PUSH1 0x4 PUSH2 0x1622 JUMP JUMPDEST PUSH2 0xD06 JUMP JUMPDEST CALLVALUE DUP1 ISZERO PUSH2 0x336 JUMPI PUSH1 0x0 DUP1 REVERT JUMPDEST POP PUSH2 0x1CE PUSH2 0xD7F JUMP JUMPDEST CALLVALUE DUP1 ISZERO PUSH2 0x34B JUMPI PUSH1 0x0 DUP1 REVERT JUMPDEST POP PUSH2 0x1F5 PUSH1 0x1E DUP2 JUMP JUMPDEST CALLVALUE DUP1 ISZERO PUSH2 0x360 JUMPI PUSH1 0x0 DUP1 REVERT JUMPDEST POP PUSH2 0x1CE PUSH2 0xD91 JUMP JUMPDEST CALLVALUE DUP1 ISZERO PUSH2 0x375 JUMPI PUSH1 0x0 DUP1 REVERT JUMPDEST POP PUSH2 0x1CE PUSH2 0x384 CALLDATASIZE PUSH1 0x4 PUSH2 0x15D4 JUMP JUMPDEST PUSH2 0xDA1 JUMP JUMPDEST CALLVALUE DUP1 ISZERO PUSH2 0x395 JUMPI PUSH1 0x0 DUP1 REVERT JUMPDEST POP PUSH1 0x1 SLOAD PUSH1 0x1 PUSH1 0x1 PUSH1 0xA0 SHL SUB AND JUMPDEST PUSH1 0x40 MLOAD PUSH1 0x1 PUSH1 0x1 PUSH1 0xA0 SHL SUB SWAP1 SWAP2 AND DUP2 MSTORE PUSH1 0x20 ADD PUSH2 0x1FF JUMP JUMPDEST CALLVALUE DUP1 ISZERO PUSH2 0x3C7 JUMPI PUSH1 0x0 DUP1 REVERT JUMPDEST POP PUSH2 0x1F5 PUSH2 0x3D6 CALLDATASIZE PUSH1 0x4 PUSH2 0x1622 JUMP JUMPDEST PUSH2 0xFC0 JUMP JUMPDEST CALLVALUE DUP1 ISZERO PUSH2 0x3E7 JUMPI PUSH1 0x0 DUP1 REVERT JUMPDEST POP PUSH2 0x1F5 PUSH1 0x3 SLOAD DUP2 JUMP JUMPDEST CALLVALUE DUP1 ISZERO PUSH2 0x3FD JUMPI PUSH1 0x0 DUP1 REVERT JUMPDEST POP PUSH2 0x1F5 PUSH2 0x3E8 DUP2 JUMP JUMPDEST CALLVALUE DUP1 ISZERO PUSH2 0x413 JUMPI PUSH1 0x0 DUP1 REVERT JUMPDEST POP PUSH2 0x3A3 PUSH32 0x0 DUP2 JUMP JUMPDEST CALLVALUE DUP1 ISZERO PUSH2 0x447 JUMPI PUSH1 0x0 DUP1 REVERT JUMPDEST POP PUSH2 0x1F5 PUSH1 0x2 SLOAD DUP2 JUMP JUMPDEST CALLVALUE DUP1 ISZERO PUSH2 0x45D JUMPI PUSH1 0x0 DUP1 REVERT JUMPDEST POP PUSH2 0x1F5 PUSH2 0x2710 DUP2 JUMP JUMPDEST CALLVALUE DUP1 ISZERO PUSH2 0x473 JUMPI PUSH1 0x0 DUP1 REVERT JUMPDEST POP PUSH2 0x1F5 PUSH2 0x482 CALLDATASIZE PUSH1 0x4 PUSH2 0x163B JUMP JUMPDEST PUSH1 0x5 PUSH1 0x20 MSTORE PUSH1 0x0 SWAP1 DUP2 MSTORE PUSH1 0x40 SWAP1 KECCAK256 SLOAD DUP2 JUMP JUMPDEST CALLVALUE DUP1 ISZERO PUSH2 0x4A0 JUMPI PUSH1 0x0 DUP1 REVERT JUMPDEST POP PUSH2 0x1CE PUSH2 0x4AF CALLDATASIZE PUSH1 0x4 PUSH2 0x163B JUMP JUMPDEST PUSH2 0x1010 JUMP JUMPDEST PUSH1 0x0 DUP4 PUSH1 0x0 SUB PUSH2 0x4C6 JUMPI POP PUSH1 0x0 PUSH2 0x530 JUMP JUMPDEST DUP3 ISZERO DUP1 PUSH2 0x4D1 JUMPI POP DUP2 ISZERO JUMPDEST ISZERO PUSH2 0x4DE JUMPI POP PUSH1 0x0 PUSH2 0x530 JUMP JUMPDEST PUSH1 0x0 PUSH2 0x2710 PUSH2 0x4EE PUSH1 0x1E DUP3 PUSH2 0x167A JUMP JUMPDEST PUSH2 0x4F8 SWAP1 DUP8 PUSH2 0x168D JUMP JUMPDEST PUSH2 0x502 SWAP2 SWAP1 PUSH2 0x16A4 JUMP JUMPDEST SWAP1 POP PUSH1 0x0 PUSH2 0x510 DUP5 DUP4 PUSH2 0x168D JUMP JUMPDEST SWAP1 POP PUSH1 0x0 PUSH2 0x51E DUP4 DUP8 PUSH2 0x16C6 JUMP JUMPDEST SWAP1 POP PUSH2 0x52A DUP2 DUP4 PUSH2 0x16A4 JUMP JUMPDEST SWAP4 POP POP POP POP JUMPDEST SWAP4 SWAP3 POP POP POP JUMP JUMPDEST PUSH2 0x53F PUSH2 0x1086 JUMP JUMPDEST PUSH2 0x547 PUSH2 0x10DF JUMP JUMPDEST DUP2 PUSH1 0x0 SUB PUSH2 0x568 JUMPI PUSH1 0x40 MLOAD PUSH4 0x98FB561 PUSH1 0xE0 SHL DUP2 MSTORE PUSH1 0x4 ADD PUSH1 0x40 MLOAD DUP1 SWAP2 SUB SWAP1 REVERT JUMPDEST PUSH1 0x0 PUSH2 0x579 DUP4 PUSH1 0x3 SLOAD PUSH1 0x2 SLOAD PUSH2 0x4B4 JUMP JUMPDEST SWAP1 POP DUP2 DUP2 LT ISZERO PUSH2 0x59C JUMPI PUSH1 0x40 MLOAD PUSH4 0x97C7F537 PUSH1 0xE0 SHL DUP2 MSTORE PUSH1 0x4 ADD PUSH1 0x40 MLOAD DUP1 SWAP2 SUB SWAP1 REVERT JUMPDEST PUSH1 0x0 PUSH2 0x2710 PUSH2 0x5AC PUSH1 0x1E DUP7 PUSH2 0x168D JUMP JUMPDEST PUSH2 0x5B6 SWAP2 SWAP1 PUSH2 0x16A4 JUMP JUMPDEST SWAP1 POP PUSH1 0x0 PUSH2 0x5C4 DUP3 DUP7 PUSH2 0x167A JUMP JUMPDEST SWAP1 POP DUP1 PUSH1 0x3 PUSH1 0x0 DUP3 DUP3 SLOAD PUSH2 0x5D8 SWAP2 SWAP1 PUSH2 0x16C6 JUMP JUMPDEST SWAP3 POP POP DUP2 SWAP1 SSTORE POP DUP3 PUSH1 0x2 PUSH1 0x0 DUP3 DUP3 SLOAD PUSH2 0x5F1 SWAP2 SWAP1 PUSH2 0x167A JUMP JUMPDEST SWAP1 SWAP2 SSTORE POP PUSH2 0x62C SWAP1 POP PUSH1 0x1 PUSH1 0x1 PUSH1 0xA0 SHL SUB PUSH32 0x0 AND CALLER ADDRESS DUP9 PUSH2 0x112C JUMP JUMPDEST PUSH1 0x40 MLOAD PUSH1 0x0 SWAP1 CALLER SWAP1 DUP6 SWAP1 DUP4 DUP2 DUP2 DUP2 DUP6 DUP8 GAS CALL SWAP3 POP POP POP RETURNDATASIZE DUP1 PUSH1 0x0 DUP2 EQ PUSH2 0x66E JUMPI PUSH1 0x40 MLOAD SWAP2 POP PUSH1 0x1F NOT PUSH1 0x3F RETURNDATASIZE ADD AND DUP3 ADD PUSH1 0x40 MSTORE RETURNDATASIZE DUP3 MSTORE RETURNDATASIZE PUSH1 0x0 PUSH1 0x20 DUP5 ADD RETURNDATACOPY PUSH2 0x673 JUMP JUMPDEST PUSH1 0x60 SWAP2 POP JUMPDEST POP POP SWAP1 POP DUP1 PUSH2 0x695 JUMPI PUSH1 0x40 MLOAD PUSH4 0x12171D83 PUSH1 0xE3 SHL DUP2 MSTORE PUSH1 0x4 ADD PUSH1 0x40 MLOAD DUP1 SWAP2 SUB SWAP1 REVERT JUMPDEST PUSH1 0x40 DUP1 MLOAD DUP8 DUP2 MSTORE PUSH1 0x20 DUP2 ADD DUP7 SWAP1 MSTORE SWAP1 DUP2 ADD DUP5 SWAP1 MSTORE PUSH1 0x0 SWAP1 PUSH32 0x0 PUSH1 0x1 PUSH1 0x1 PUSH1 0xA0 SHL SUB AND SWAP1 CALLER SWAP1 PUSH32 0xD6D34547C69C5EE3D2667625C188ACF1006ABB93E0EE7CF03925C67CF7760413 SWAP1 PUSH1 0x60 ADD PUSH1 0x40 MLOAD DUP1 SWAP2 SUB SWAP1 LOG4 PUSH32 0x92664190CCA12ACA9CD5309D87194BDDA75BB51362D71C06E1A6F75C7C765711 PUSH2 0x72F PUSH2 0x790 JUMP JUMPDEST PUSH1 0x40 DUP1 MLOAD SWAP2 DUP3 MSTORE TIMESTAMP PUSH1 0x20 DUP4 ADD MSTORE ADD PUSH1 0x40 MLOAD DUP1 SWAP2 SUB SWAP1 LOG1 POP POP POP POP PUSH2 0x753 PUSH1 0x1 PUSH1 0x0 SSTORE JUMP JUMPDEST POP POP JUMP JUMPDEST PUSH1 0x0 PUSH1 0x3 SLOAD PUSH1 0x0 SUB PUSH2 0x769 JUMPI POP PUSH1 0x0 SWAP1 JUMP JUMPDEST PUSH1 0x3 SLOAD PUSH1 0x2 SLOAD PUSH2 0x781 SWAP1 PUSH8 0xDE0B6B3A7640000 PUSH2 0x168D JUMP JUMPDEST PUSH2 0x78B SWAP2 SWAP1 PUSH2 0x16A4 JUMP JUMPDEST SWAP1 POP SWAP1 JUMP JUMPDEST PUSH1 0x0 PUSH1 0x2 SLOAD PUSH1 0x0 SUB PUSH2 0x7A2 JUMPI POP PUSH1 0x0 SWAP1 JUMP JUMPDEST PUSH1 0x2 SLOAD PUSH1 0x3 SLOAD PUSH2 0x781 SWAP1 PUSH8 0xDE0B6B3A7640000 PUSH2 0x168D JUMP JUMPDEST PUSH2 0x7C2 PUSH2 0x1086 JUMP JUMPDEST PUSH2 0x7CA PUSH2 0x10DF JUMP JUMPDEST CALLVALUE PUSH1 0x0 SUB PUSH2 0x7EB JUMPI PUSH1 0x40 MLOAD PUSH4 0x98FB561 PUSH1 0xE0 SHL DUP2 MSTORE PUSH1 0x4 ADD PUSH1 0x40 MLOAD DUP1 SWAP2 SUB SWAP1 REVERT JUMPDEST PUSH1 0x0 PUSH2 0x7FC CALLVALUE PUSH1 0x2 SLOAD PUSH1 0x3 SLOAD PUSH2 0x4B4 JUMP JUMPDEST SWAP1 POP DUP2 DUP2 LT ISZERO PUSH2 0x81F JUMPI PUSH1 0x40 MLOAD PUSH4 0x97C7F537 PUSH1 0xE0 SHL DUP2 MSTORE PUSH1 0x4 ADD PUSH1 0x40 MLOAD DUP1 SWAP2 SUB SWAP1 REVERT JUMPDEST PUSH1 0x0 PUSH2 0x2710 PUSH2 0x82F PUSH1 0x1E CALLVALUE PUSH2 0x168D JUMP JUMPDEST PUSH2 0x839 SWAP2 SWAP1 PUSH2 0x16A4 JUMP JUMPDEST SWAP1 POP PUSH1 0x0 PUSH2 0x847 DUP3 CALLVALUE PUSH2 0x167A JUMP JUMPDEST SWAP1 POP DUP1 PUSH1 0x2 PUSH1 0x0 DUP3 DUP3 SLOAD PUSH2 0x85B SWAP2 SWAP1 PUSH2 0x16C6 JUMP JUMPDEST SWAP3 POP POP DUP2 SWAP1 SSTORE POP DUP3 PUSH1 0x3 PUSH1 0x0 DUP3 DUP3 SLOAD PUSH2 0x874 SWAP2 SWAP1 PUSH2 0x167A JUMP JUMPDEST SWAP1 SWAP2 SSTORE POP PUSH2 0x8AE SWAP1 POP PUSH1 0x1 PUSH1 0x1 PUSH1 0xA0 SHL SUB PUSH32 0x0 AND CALLER DUP6 PUSH2 0x119D JUMP JUMPDEST PUSH1 0x40 DUP1 MLOAD CALLVALUE DUP2 MSTORE PUSH1 0x20 DUP2 ADD DUP6 SWAP1 MSTORE SWAP1 DUP2 ADD DUP4 SWAP1 MSTORE PUSH1 0x1 PUSH1 0x1 PUSH1 0xA0 SHL SUB PUSH32 0x0 AND SWAP1 PUSH1 0x0 SWAP1 CALLER SWAP1 PUSH32 0xD6D34547C69C5EE3D2667625C188ACF1006ABB93E0EE7CF03925C67CF7760413 SWAP1 PUSH1 0x60 ADD PUSH1 0x40 MLOAD DUP1 SWAP2 SUB SWAP1 LOG4 PUSH32 0x92664190CCA12ACA9CD5309D87194BDDA75BB51362D71C06E1A6F75C7C765711 PUSH2 0x948 PUSH2 0x790 JUMP JUMPDEST PUSH1 0x40 DUP1 MLOAD SWAP2 DUP3 MSTORE TIMESTAMP PUSH1 0x20 DUP4 ADD MSTORE ADD PUSH1 0x40 MLOAD DUP1 SWAP2 SUB SWAP1 LOG1 POP POP POP PUSH2 0x96B PUSH1 0x1 PUSH1 0x0 SSTORE JUMP JUMPDEST POP JUMP JUMPDEST PUSH2 0x976 PUSH2 0x11CD JUMP JUMPDEST PUSH2 0x97E PUSH2 0x1227 JUMP JUMPDEST JUMP JUMPDEST PUSH2 0x988 PUSH2 0x1086 JUMP JUMPDEST PUSH2 0x990 PUSH2 0x10DF JUMP JUMPDEST CALLVALUE ISZERO DUP1 PUSH2 0x99B JUMPI POP DUP3 ISZERO JUMPDEST ISZERO PUSH2 0x9B9 JUMPI PUSH1 0x40 MLOAD PUSH4 0x98FB561 PUSH1 0xE0 SHL DUP2 MSTORE PUSH1 0x4 ADD PUSH1 0x40 MLOAD DUP1 SWAP2 SUB SWAP1 REVERT JUMPDEST PUSH1 0x4 SLOAD CALLVALUE SWAP1 PUSH1 0x0 SWAP1 DUP2 SUB PUSH2 0xA18 JUMPI PUSH2 0x3E8 PUSH2 0x9DC PUSH2 0x9D7 DUP8 DUP6 PUSH2 0x168D JUMP JUMPDEST PUSH2 0x127C JUMP JUMPDEST PUSH2 0x9E6 SWAP2 SWAP1 PUSH2 0x167A JUMP JUMPDEST SWAP1 POP PUSH1 0x0 DUP2 GT PUSH2 0xA09 JUMPI PUSH1 0x40 MLOAD PUSH4 0xBB55FD27 PUSH1 0xE0 SHL DUP2 MSTORE PUSH1 0x4 ADD PUSH1 0x40 MLOAD DUP1 SWAP2 SUB SWAP1 REVERT JUMPDEST PUSH1 0x2 DUP3 SWAP1 SSTORE PUSH1 0x3 DUP6 SWAP1 SSTORE PUSH2 0xB96 JUMP JUMPDEST PUSH1 0x0 PUSH1 0x2 SLOAD PUSH1 0x3 SLOAD DUP5 PUSH2 0xA2B SWAP2 SWAP1 PUSH2 0x168D JUMP JUMPDEST PUSH2 0xA35 SWAP2 SWAP1 PUSH2 0x16A4 JUMP JUMPDEST SWAP1 POP PUSH1 0x0 PUSH1 0x3 SLOAD PUSH1 0x2 SLOAD DUP9 PUSH2 0xA4A SWAP2 SWAP1 PUSH2 0x168D JUMP JUMPDEST PUSH2 0xA54 SWAP2 SWAP1 PUSH2 0x16A4 JUMP JUMPDEST SWAP1 POP DUP7 DUP3 GT PUSH2 0xA86 JUMPI DUP5 DUP3 LT ISZERO PUSH2 0xA7E JUMPI PUSH1 0x40 MLOAD PUSH4 0x97C7F537 PUSH1 0xE0 SHL DUP2 MSTORE PUSH1 0x4 ADD PUSH1 0x40 MLOAD DUP1 SWAP2 SUB SWAP1 REVERT JUMPDEST DUP2 SWAP7 POP PUSH2 0xB24 JUMP JUMPDEST DUP6 DUP2 LT ISZERO PUSH2 0xAA7 JUMPI PUSH1 0x40 MLOAD PUSH4 0x97C7F537 PUSH1 0xE0 SHL DUP2 MSTORE PUSH1 0x4 ADD PUSH1 0x40 MLOAD DUP1 SWAP2 SUB SWAP1 REVERT JUMPDEST DUP1 SWAP4 POP DUP4 CALLVALUE GT ISZERO PUSH2 0xB24 JUMPI PUSH1 0x0 CALLER PUSH2 0xABF DUP7 CALLVALUE PUSH2 0x167A JUMP JUMPDEST PUSH1 0x40 MLOAD PUSH1 0x0 DUP2 DUP2 DUP2 DUP6 DUP8 GAS CALL SWAP3 POP POP POP RETURNDATASIZE DUP1 PUSH1 0x0 DUP2 EQ PUSH2 0xAFB JUMPI PUSH1 0x40 MLOAD SWAP2 POP PUSH1 0x1F NOT PUSH1 0x3F RETURNDATASIZE ADD AND DUP3 ADD PUSH1 0x40 MSTORE RETURNDATASIZE DUP3 MSTORE RETURNDATASIZE PUSH1 0x0 PUSH1 0x20 DUP5 ADD RETURNDATACOPY PUSH2 0xB00 JUMP JUMPDEST PUSH1 0x60 SWAP2 POP JUMPDEST POP POP SWAP1 POP DUP1 PUSH2 0xB22 JUMPI PUSH1 0x40 MLOAD PUSH4 0x12171D83 PUSH1 0xE3 SHL DUP2 MSTORE PUSH1 0x4 ADD PUSH1 0x40 MLOAD DUP1 SWAP2 SUB SWAP1 REVERT JUMPDEST POP JUMPDEST PUSH2 0xB61 PUSH1 0x2 SLOAD PUSH1 0x4 SLOAD DUP7 PUSH2 0xB38 SWAP2 SWAP1 PUSH2 0x168D JUMP JUMPDEST PUSH2 0xB42 SWAP2 SWAP1 PUSH2 0x16A4 JUMP JUMPDEST PUSH1 0x3 SLOAD PUSH1 0x4 SLOAD PUSH2 0xB52 SWAP1 DUP12 PUSH2 0x168D JUMP JUMPDEST PUSH2 0xB5C SWAP2 SWAP1 PUSH2 0x16A4 JUMP JUMPDEST PUSH2 0x12DD JUMP JUMPDEST SWAP3 POP DUP4 PUSH1 0x2 PUSH1 0x0 DUP3 DUP3 SLOAD PUSH2 0xB75 SWAP2 SWAP1 PUSH2 0x16C6 JUMP JUMPDEST SWAP3 POP POP DUP2 SWAP1 SSTORE POP DUP7 PUSH1 0x3 PUSH1 0x0 DUP3 DUP3 SLOAD PUSH2 0xB8E SWAP2 SWAP1 PUSH2 0x16C6 JUMP JUMPDEST SWAP1 SWAP2 SSTORE POP POP POP POP JUMPDEST DUP1 PUSH1 0x4 PUSH1 0x0 DUP3 DUP3 SLOAD PUSH2 0xBA8 SWAP2 SWAP1 PUSH2 0x16C6 JUMP JUMPDEST SWAP1 SWAP2 SSTORE POP POP CALLER PUSH1 0x0 SWAP1 DUP2 MSTORE PUSH1 0x5 PUSH1 0x20 MSTORE PUSH1 0x40 DUP2 KECCAK256 DUP1 SLOAD DUP4 SWAP3 SWAP1 PUSH2 0xBCC SWAP1 DUP5 SWAP1 PUSH2 0x16C6 JUMP JUMPDEST SWAP1 SWAP2 SSTORE POP PUSH2 0xC07 SWAP1 POP PUSH1 0x1 PUSH1 0x1 PUSH1 0xA0 SHL SUB PUSH32 0x0 AND CALLER ADDRESS DUP9 PUSH2 0x112C JUMP JUMPDEST PUSH1 0x40 DUP1 MLOAD DUP4 DUP2 MSTORE PUSH1 0x20 DUP2 ADD DUP8 SWAP1 MSTORE SWAP1 DUP2 ADD DUP3 SWAP1 MSTORE CALLER SWAP1 PUSH32 0x64B83944E79C3CE8D4C297411DE637C3E102D064677AAC0C163976EBDCD6F50E SWAP1 PUSH1 0x60 ADD PUSH1 0x40 MLOAD DUP1 SWAP2 SUB SWAP1 LOG2 POP POP PUSH2 0xC56 PUSH1 0x1 PUSH1 0x0 SSTORE JUMP JUMPDEST POP POP POP JUMP JUMPDEST PUSH2 0xC63 PUSH2 0x11CD JUMP JUMPDEST PUSH1 0x2 SLOAD SELFBALANCE SWAP1 DUP2 GT ISZERO PUSH2 0x96B JUMPI PUSH1 0x0 PUSH1 0x2 SLOAD DUP3 PUSH2 0xC7F SWAP2 SWAP1 PUSH2 0x167A JUMP JUMPDEST SWAP1 POP PUSH1 0x0 PUSH2 0xC95 PUSH1 0x1 SLOAD PUSH1 0x1 PUSH1 0x1 PUSH1 0xA0 SHL SUB AND SWAP1 JUMP JUMPDEST PUSH1 0x1 PUSH1 0x1 PUSH1 0xA0 SHL SUB AND DUP3 PUSH1 0x40 MLOAD PUSH1 0x0 PUSH1 0x40 MLOAD DUP1 DUP4 SUB DUP2 DUP6 DUP8 GAS CALL SWAP3 POP POP POP RETURNDATASIZE DUP1 PUSH1 0x0 DUP2 EQ PUSH2 0xCDF JUMPI PUSH1 0x40 MLOAD SWAP2 POP PUSH1 0x1F NOT PUSH1 0x3F RETURNDATASIZE ADD AND DUP3 ADD PUSH1 0x40 MSTORE RETURNDATASIZE DUP3 MSTORE RETURNDATASIZE PUSH1 0x0 PUSH1 0x20 DUP5 ADD RETURNDATACOPY PUSH2 0xCE4 JUMP JUMPDEST PUSH1 0x60 SWAP2 POP JUMPDEST POP POP SWAP1 POP DUP1 PUSH2 0xC56 JUMPI PUSH1 0x40 MLOAD PUSH4 0x12171D83 PUSH1 0xE3 SHL DUP2 MSTORE PUSH1 0x4 ADD PUSH1 0x40 MLOAD DUP1 SWAP2 SUB SWAP1 REVERT JUMPDEST PUSH1 0x0 PUSH1 0x3 SLOAD DUP3 LT PUSH2 0xD1A JUMPI POP PUSH1 0x0 NOT SWAP2 SWAP1 POP JUMP JUMPDEST PUSH1 0x0 PUSH2 0x2710 DUP4 PUSH1 0x2 SLOAD PUSH2 0xD2D SWAP2 SWAP1 PUSH2 0x168D JUMP JUMPDEST PUSH2 0xD37 SWAP2 SWAP1 PUSH2 0x168D JUMP JUMPDEST SWAP1 POP PUSH1 0x0 PUSH2 0xD48 PUSH1 0x1E PUSH2 0x2710 PUSH2 0x167A JUMP JUMPDEST DUP5 PUSH1 0x3 SLOAD PUSH2 0xD56 SWAP2 SWAP1 PUSH2 0x167A JUMP JUMPDEST PUSH2 0xD60 SWAP2 SWAP1 PUSH2 0x168D JUMP JUMPDEST SWAP1 POP PUSH2 0xD6C DUP2 DUP4 PUSH2 0x16A4 JUMP JUMPDEST PUSH2 0xD77 SWAP1 PUSH1 0x1 PUSH2 0x16C6 JUMP JUMPDEST SWAP5 SWAP4 POP POP POP POP JUMP JUMPDEST PUSH2 0xD87 PUSH2 0x11CD JUMP JUMPDEST PUSH2 0x97E PUSH1 0x0 PUSH2 0x12F7 JUMP JUMPDEST PUSH2 0xD99 PUSH2 0x11CD JUMP JUMPDEST PUSH2 0x97E PUSH2 0x1349 JUMP JUMPDEST PUSH2 0xDA9 PUSH2 0x1086 JUMP JUMPDEST DUP3 PUSH1 0x0 SUB PUSH2 0xDCA JUMPI PUSH1 0x40 MLOAD PUSH4 0x98FB561 PUSH1 0xE0 SHL DUP2 MSTORE PUSH1 0x4 ADD PUSH1 0x40 MLOAD DUP1 SWAP2 SUB SWAP1 REVERT JUMPDEST CALLER PUSH1 0x0 SWAP1 DUP2 MSTORE PUSH1 0x5 PUSH1 0x20 MSTORE PUSH1 0x40 SWAP1 KECCAK256 SLOAD DUP4 GT ISZERO PUSH2 0xDFA JUMPI PUSH1 0x40 MLOAD PUSH4 0xBB55FD27 PUSH1 0xE0 SHL DUP2 MSTORE PUSH1 0x4 ADD PUSH1 0x40 MLOAD DUP1 SWAP2 SUB SWAP1 REVERT JUMPDEST PUSH1 0x0 PUSH1 0x4 SLOAD PUSH1 0x2 SLOAD DUP6 PUSH2 0xE0D SWAP2 SWAP1 PUSH2 0x168D JUMP JUMPDEST PUSH2 0xE17 SWAP2 SWAP1 PUSH2 0x16A4 JUMP JUMPDEST SWAP1 POP PUSH1 0x0 PUSH1 0x4 SLOAD PUSH1 0x3 SLOAD DUP7 PUSH2 0xE2C SWAP2 SWAP1 PUSH2 0x168D JUMP JUMPDEST PUSH2 0xE36 SWAP2 SWAP1 PUSH2 0x16A4 JUMP JUMPDEST SWAP1 POP DUP4 DUP3 LT DUP1 PUSH2 0xE45 JUMPI POP DUP3 DUP2 LT JUMPDEST ISZERO PUSH2 0xE63 JUMPI PUSH1 0x40 MLOAD PUSH4 0x97C7F537 PUSH1 0xE0 SHL DUP2 MSTORE PUSH1 0x4 ADD PUSH1 0x40 MLOAD DUP1 SWAP2 SUB SWAP1 REVERT JUMPDEST CALLER PUSH1 0x0 SWAP1 DUP2 MSTORE PUSH1 0x5 PUSH1 0x20 MSTORE PUSH1 0x40 DUP2 KECCAK256 DUP1 SLOAD DUP8 SWAP3 SWAP1 PUSH2 0xE82 SWAP1 DUP5 SWAP1 PUSH2 0x167A JUMP JUMPDEST SWAP3 POP POP DUP2 SWAP1 SSTORE POP DUP5 PUSH1 0x4 PUSH1 0x0 DUP3 DUP3 SLOAD PUSH2 0xE9B SWAP2 SWAP1 PUSH2 0x167A JUMP JUMPDEST SWAP3 POP POP DUP2 SWAP1 SSTORE POP DUP2 PUSH1 0x2 PUSH1 0x0 DUP3 DUP3 SLOAD PUSH2 0xEB4 SWAP2 SWAP1 PUSH2 0x167A JUMP JUMPDEST SWAP3 POP POP DUP2 SWAP1 SSTORE POP DUP1 PUSH1 0x3 PUSH1 0x0 DUP3 DUP3 SLOAD PUSH2 0xECD SWAP2 SWAP1 PUSH2 0x167A JUMP JUMPDEST SWAP1 SWAP2 SSTORE POP PUSH2 0xF07 SWAP1 POP PUSH1 0x1 PUSH1 0x1 PUSH1 0xA0 SHL SUB PUSH32 0x0 AND CALLER DUP4 PUSH2 0x119D JUMP JUMPDEST PUSH1 0x40 MLOAD PUSH1 0x0 SWAP1 CALLER SWAP1 DUP5 SWAP1 DUP4 DUP2 DUP2 DUP2 DUP6 DUP8 GAS CALL SWAP3 POP POP POP RETURNDATASIZE DUP1 PUSH1 0x0 DUP2 EQ PUSH2 0xF49 JUMPI PUSH1 0x40 MLOAD SWAP2 POP PUSH1 0x1F NOT PUSH1 0x3F RETURNDATASIZE ADD AND DUP3 ADD PUSH1 0x40 MSTORE RETURNDATASIZE DUP3 MSTORE RETURNDATASIZE PUSH1 0x0 PUSH1 0x20 DUP5 ADD RETURNDATACOPY PUSH2 0xF4E JUMP JUMPDEST PUSH1 0x60 SWAP2 POP JUMPDEST POP POP SWAP1 POP DUP1 PUSH2 0xF70 JUMPI PUSH1 0x40 MLOAD PUSH4 0x12171D83 PUSH1 0xE3 SHL DUP2 MSTORE PUSH1 0x4 ADD PUSH1 0x40 MLOAD DUP1 SWAP2 SUB SWAP1 REVERT JUMPDEST PUSH1 0x40 DUP1 MLOAD DUP5 DUP2 MSTORE PUSH1 0x20 DUP2 ADD DUP5 SWAP1 MSTORE SWAP1 DUP2 ADD DUP8 SWAP1 MSTORE CALLER SWAP1 PUSH32 0x1DC8BB69DF2B8E91FBDCBFCF93D951B3F0000F085A95FE3F7946D6161439245D SWAP1 PUSH1 0x60 ADD PUSH1 0x40 MLOAD DUP1 SWAP2 SUB SWAP1 LOG2 POP POP POP PUSH2 0xC56 PUSH1 0x1 PUSH1 0x0 SSTORE JUMP JUMPDEST PUSH1 0x0 PUSH1 0x2 SLOAD DUP3 LT PUSH2 0xFD4 JUMPI POP PUSH1 0x0 NOT SWAP2 SWAP1 POP JUMP JUMPDEST PUSH1 0x0 PUSH2 0x2710 DUP4 PUSH1 0x3 SLOAD PUSH2 0xFE7 SWAP2 SWAP1 PUSH2 0x168D JUMP JUMPDEST PUSH2 0xFF1 SWAP2 SWAP1 PUSH2 0x168D JUMP JUMPDEST SWAP1 POP PUSH1 0x0 PUSH2 0x1002 PUSH1 0x1E PUSH2 0x2710 PUSH2 0x167A JUMP JUMPDEST DUP5 PUSH1 0x2 SLOAD PUSH2 0xD56 SWAP2 SWAP1 PUSH2 0x167A JUMP JUMPDEST PUSH2 0x1018 PUSH2 0x11CD JUMP JUMPDEST PUSH1 0x1 PUSH1 0x1 PUSH1 0xA0 SHL SUB DUP2 AND PUSH2 0x107D JUMPI PUSH1 0x40 MLOAD PUSH3 0x461BCD PUSH1 0xE5 SHL DUP2 MSTORE PUSH1 0x20 PUSH1 0x4 DUP3 ADD MSTORE PUSH1 0x26 PUSH1 0x24 DUP3 ADD MSTORE PUSH32 0x4F776E61626C653A206E6577206F776E657220697320746865207A65726F2061 PUSH1 0x44 DUP3 ADD MSTORE PUSH6 0x646472657373 PUSH1 0xD0 SHL PUSH1 0x64 DUP3 ADD MSTORE PUSH1 0x84 ADD PUSH2 0x1C5 JUMP JUMPDEST PUSH2 0x96B DUP2 PUSH2 0x12F7 JUMP JUMPDEST PUSH1 0x2 PUSH1 0x0 SLOAD SUB PUSH2 0x10D8 JUMPI PUSH1 0x40 MLOAD PUSH3 0x461BCD PUSH1 0xE5 SHL DUP2 MSTORE PUSH1 0x20 PUSH1 0x4 DUP3 ADD MSTORE PUSH1 0x1F PUSH1 0x24 DUP3 ADD MSTORE PUSH32 0x5265656E7472616E637947756172643A207265656E7472616E742063616C6C00 PUSH1 0x44 DUP3 ADD MSTORE PUSH1 0x64 ADD PUSH2 0x1C5 JUMP JUMPDEST PUSH1 0x2 PUSH1 0x0 SSTORE JUMP JUMPDEST PUSH1 0x1 SLOAD PUSH1 0x1 PUSH1 0xA0 SHL SWAP1 DIV PUSH1 0xFF AND ISZERO PUSH2 0x97E JUMPI PUSH1 0x40 MLOAD PUSH3 0x461BCD PUSH1 0xE5 SHL DUP2 MSTORE PUSH1 0x20 PUSH1 0x4 DUP3 ADD MSTORE PUSH1 0x10 PUSH1 0x24 DUP3 ADD MSTORE PUSH16 0x14185D5CD8589B194E881C185D5CD959 PUSH1 0x82 SHL PUSH1 0x44 DUP3 ADD MSTORE PUSH1 0x64 ADD PUSH2 0x1C5 JUMP JUMPDEST PUSH1 0x40 MLOAD PUSH1 0x1 PUSH1 0x1 PUSH1 0xA0 SHL SUB DUP1 DUP6 AND PUSH1 0x24 DUP4 ADD MSTORE DUP4 AND PUSH1 0x44 DUP3 ADD MSTORE PUSH1 0x64 DUP2 ADD DUP3 SWAP1 MSTORE PUSH2 0x1197 SWAP1 DUP6 SWAP1 PUSH4 0x23B872DD PUSH1 0xE0 SHL SWAP1 PUSH1 0x84 ADD JUMPDEST PUSH1 0x40 DUP1 MLOAD PUSH1 0x1F NOT DUP2 DUP5 SUB ADD DUP2 MSTORE SWAP2 SWAP1 MSTORE PUSH1 0x20 DUP2 ADD DUP1 MLOAD PUSH1 0x1 PUSH1 0x1 PUSH1 0xE0 SHL SUB AND PUSH1 0x1 PUSH1 0x1 PUSH1 0xE0 SHL SUB NOT SWAP1 SWAP4 AND SWAP3 SWAP1 SWAP3 OR SWAP1 SWAP2 MSTORE PUSH2 0x138C JUMP JUMPDEST POP POP POP POP JUMP JUMPDEST PUSH1 0x40 MLOAD PUSH1 0x1 PUSH1 0x1 PUSH1 0xA0 SHL SUB DUP4 AND PUSH1 0x24 DUP3 ADD MSTORE PUSH1 0x44 DUP2 ADD DUP3 SWAP1 MSTORE PUSH2 0xC56 SWAP1 DUP5 SWAP1 PUSH4 0xA9059CBB PUSH1 0xE0 SHL SWAP1 PUSH1 0x64 ADD PUSH2 0x1160 JUMP JUMPDEST PUSH1 0x1 SLOAD PUSH1 0x1 PUSH1 0x1 PUSH1 0xA0 SHL SUB AND CALLER EQ PUSH2 0x97E JUMPI PUSH1 0x40 MLOAD PUSH3 0x461BCD PUSH1 0xE5 SHL DUP2 MSTORE PUSH1 0x20 PUSH1 0x4 DUP3 ADD DUP2 SWAP1 MSTORE PUSH1 0x24 DUP3 ADD MSTORE PUSH32 0x4F776E61626C653A2063616C6C6572206973206E6F7420746865206F776E6572 PUSH1 0x44 DUP3 ADD MSTORE PUSH1 0x64 ADD PUSH2 0x1C5 JUMP JUMPDEST PUSH2 0x122F PUSH2 0x1461 JUMP JUMPDEST PUSH1 0x1 DUP1 SLOAD PUSH1 0xFF PUSH1 0xA0 SHL NOT AND SWAP1 SSTORE PUSH32 0x5DB9EE0A495BF2E6FF9C91A7834C1BA4FDD244A5E8AA4E537BD38AEAE4B073AA CALLER JUMPDEST PUSH1 0x40 MLOAD PUSH1 0x1 PUSH1 0x1 PUSH1 0xA0 SHL SUB SWAP1 SWAP2 AND DUP2 MSTORE PUSH1 0x20 ADD PUSH1 0x40 MLOAD DUP1 SWAP2 SUB SWAP1 LOG1 JUMP JUMPDEST PUSH1 0x0 DUP2 PUSH1 0x0 SUB PUSH2 0x128E JUMPI POP PUSH1 0x0 SWAP2 SWAP1 POP JUMP JUMPDEST PUSH1 0x0 PUSH1 0x2 PUSH2 0x129D DUP5 PUSH1 0x1 PUSH2 0x16C6 JUMP JUMPDEST PUSH2 0x12A7 SWAP2 SWAP1 PUSH2 0x16A4 JUMP JUMPDEST SWAP1 POP DUP3 JUMPDEST DUP1 DUP3 LT ISZERO PUSH2 0x530 JUMPI POP DUP1 PUSH1 0x2 DUP2 PUSH2 0x12C2 DUP2 DUP8 PUSH2 0x16A4 JUMP JUMPDEST PUSH2 0x12CC SWAP2 SWAP1 PUSH2 0x16C6 JUMP JUMPDEST PUSH2 0x12D6 SWAP2 SWAP1 PUSH2 0x16A4 JUMP JUMPDEST SWAP2 POP PUSH2 0x12AB JUMP JUMPDEST PUSH1 0x0 DUP2 DUP4 LT PUSH2 0x12EC JUMPI DUP2 PUSH2 0x12EE JUMP JUMPDEST DUP3 JUMPDEST SWAP1 POP JUMPDEST SWAP3 SWAP2 POP POP JUMP JUMPDEST PUSH1 0x1 DUP1 SLOAD PUSH1 0x1 PUSH1 0x1 PUSH1 0xA0 SHL SUB DUP4 DUP2 AND PUSH1 0x1 PUSH1 0x1 PUSH1 0xA0 SHL SUB NOT DUP4 AND DUP2 OR SWAP1 SWAP4 SSTORE PUSH1 0x40 MLOAD SWAP2 AND SWAP2 SWAP1 DUP3 SWAP1 PUSH32 0x8BE0079C531659141344CD1FD0A4F28419497F9722A3DAAFE3B4186F6B6457E0 SWAP1 PUSH1 0x0 SWAP1 LOG3 POP POP JUMP JUMPDEST PUSH2 0x1351 PUSH2 0x10DF JUMP JUMPDEST PUSH1 0x1 DUP1 SLOAD PUSH1 0xFF PUSH1 0xA0 SHL NOT AND PUSH1 0x1 PUSH1 0xA0 SHL OR SWAP1 SSTORE PUSH32 0x62E78CEA01BEE320CD4E420270B5EA74000D11B0C9F74754EBDBFC544B05A258 PUSH2 0x125F CALLER SWAP1 JUMP JUMPDEST PUSH1 0x0 PUSH2 0x13E1 DUP3 PUSH1 0x40 MLOAD DUP1 PUSH1 0x40 ADD PUSH1 0x40 MSTORE DUP1 PUSH1 0x20 DUP2 MSTORE PUSH1 0x20 ADD PUSH32 0x5361666545524332303A206C6F772D6C6576656C2063616C6C206661696C6564 DUP2 MSTORE POP DUP6 PUSH1 0x1 PUSH1 0x1 PUSH1 0xA0 SHL SUB AND PUSH2 0x14B1 SWAP1 SWAP3 SWAP2 SWAP1 PUSH4 0xFFFFFFFF AND JUMP JUMPDEST SWAP1 POP DUP1 MLOAD PUSH1 0x0 EQ DUP1 PUSH2 0x1402 JUMPI POP DUP1 DUP1 PUSH1 0x20 ADD SWAP1 MLOAD DUP2 ADD SWAP1 PUSH2 0x1402 SWAP2 SWAP1 PUSH2 0x16D9 JUMP JUMPDEST PUSH2 0xC56 JUMPI PUSH1 0x40 MLOAD PUSH3 0x461BCD PUSH1 0xE5 SHL DUP2 MSTORE PUSH1 0x20 PUSH1 0x4 DUP3 ADD MSTORE PUSH1 0x2A PUSH1 0x24 DUP3 ADD MSTORE PUSH32 0x5361666545524332303A204552433230206F7065726174696F6E20646964206E PUSH1 0x44 DUP3 ADD MSTORE PUSH10 0x1BDD081CDD58D8D95959 PUSH1 0xB2 SHL PUSH1 0x64 DUP3 ADD MSTORE PUSH1 0x84 ADD PUSH2 0x1C5 JUMP JUMPDEST PUSH1 0x1 SLOAD PUSH1 0x1 PUSH1 0xA0 SHL SWAP1 DIV PUSH1 0xFF AND PUSH2 0x97E JUMPI PUSH1 0x40 MLOAD PUSH3 0x461BCD PUSH1 0xE5 SHL DUP2 MSTORE PUSH1 0x20 PUSH1 0x4 DUP3 ADD MSTORE PUSH1 0x14 PUSH1 0x24 DUP3 ADD MSTORE PUSH20 0x14185D5CD8589B194E881B9BDD081C185D5CD959 PUSH1 0x62 SHL PUSH1 0x44 DUP3 ADD MSTORE PUSH1 0x64 ADD PUSH2 0x1C5 JUMP JUMPDEST PUSH1 0x60 PUSH2 0xD77 DUP5 DUP5 PUSH1 0x0 DUP6 DUP6 PUSH1 0x0 DUP1 DUP7 PUSH1 0x1 PUSH1 0x1 PUSH1 0xA0 SHL SUB AND DUP6 DUP8 PUSH1 0x40 MLOAD PUSH2 0x14D8 SWAP2 SWAP1 PUSH2 0x171F JUMP JUMPDEST PUSH1 0x0 PUSH1 0x40 MLOAD DUP1 DUP4 SUB DUP2 DUP6 DUP8 GAS CALL SWAP3 POP POP POP RETURNDATASIZE DUP1 PUSH1 0x0 DUP2 EQ PUSH2 0x1515 JUMPI PUSH1 0x40 MLOAD SWAP2 POP PUSH1 0x1F NOT PUSH1 0x3F RETURNDATASIZE ADD AND DUP3 ADD PUSH1 0x40 MSTORE RETURNDATASIZE DUP3 MSTORE RETURNDATASIZE PUSH1 0x0 PUSH1 0x20 DUP5 ADD RETURNDATACOPY PUSH2 0x151A JUMP JUMPDEST PUSH1 0x60 SWAP2 POP JUMPDEST POP SWAP2 POP SWAP2 POP PUSH2 0x152B DUP8 DUP4 DUP4 DUP8 PUSH2 0x1536 JUMP JUMPDEST SWAP8 SWAP7 POP POP POP POP POP POP POP JUMP JUMPDEST PUSH1 0x60 DUP4 ISZERO PUSH2 0x15A5 JUMPI DUP3 MLOAD PUSH1 0x0 SUB PUSH2 0x159E JUMPI PUSH1 0x1 PUSH1 0x1 PUSH1 0xA0 SHL SUB DUP6 AND EXTCODESIZE PUSH2 0x159E JUMPI PUSH1 0x40 MLOAD PUSH3 0x461BCD PUSH1 0xE5 SHL DUP2 MSTORE PUSH1 0x20 PUSH1 0x4 DUP3 ADD MSTORE PUSH1 0x1D PUSH1 0x24 DUP3 ADD MSTORE PUSH32 0x416464726573733A2063616C6C20746F206E6F6E2D636F6E7472616374000000 PUSH1 0x44 DUP3 ADD MSTORE PUSH1 0x64 ADD PUSH2 0x1C5 JUMP JUMPDEST POP DUP2 PUSH2 0xD77 JUMP JUMPDEST PUSH2 0xD77 DUP4 DUP4 DUP2 MLOAD ISZERO PUSH2 0x15BA JUMPI DUP2 MLOAD DUP1 DUP4 PUSH1 0x20 ADD REVERT JUMPDEST DUP1 PUSH1 0x40 MLOAD PUSH3 0x461BCD PUSH1 0xE5 SHL DUP2 MSTORE PUSH1 0x4 ADD PUSH2 0x1C5 SWAP2 SWAP1 PUSH2 0x173B JUMP JUMPDEST PUSH1 0x0 DUP1 PUSH1 0x0 PUSH1 0x60 DUP5 DUP7 SUB SLT ISZERO PUSH2 0x15E9 JUMPI PUSH1 0x0 DUP1 REVERT JUMPDEST POP POP DUP2 CALLDATALOAD SWAP4 PUSH1 0x20 DUP4 ADD CALLDATALOAD SWAP4 POP PUSH1 0x40 SWAP1 SWAP3 ADD CALLDATALOAD SWAP2 SWAP1 POP JUMP JUMPDEST PUSH1 0x0 DUP1 PUSH1 0x40 DUP4 DUP6 SUB SLT ISZERO PUSH2 0x1613 JUMPI PUSH1 0x0 DUP1 REVERT JUMPDEST POP POP DUP1 CALLDATALOAD SWAP3 PUSH1 0x20 SWAP1 SWAP2 ADD CALLDATALOAD SWAP2 POP JUMP JUMPDEST PUSH1 0x0 PUSH1 0x20 DUP3 DUP5 SUB SLT ISZERO PUSH2 0x1634 JUMPI PUSH1 0x0 DUP1 REVERT JUMPDEST POP CALLDATALOAD SWAP2 SWAP1 POP JUMP JUMPDEST PUSH1 0x0 PUSH1 0x20 DUP3 DUP5 SUB SLT ISZERO PUSH2 0x164D JUMPI PUSH1 0x0 DUP1 REVERT JUMPDEST DUP2 CALLDATALOAD PUSH1 0x1 PUSH1 0x1 PUSH1 0xA0 SHL SUB DUP2 AND DUP2 EQ PUSH2 0x530 JUMPI PUSH1 0x0 DUP1 REVERT JUMPDEST PUSH4 0x4E487B71 PUSH1 0xE0 SHL PUSH1 0x0 MSTORE PUSH1 0x11 PUSH1 0x4 MSTORE PUSH1 0x24 PUSH1 0x0 REVERT JUMPDEST DUP2 DUP2 SUB DUP2 DUP2 GT ISZERO PUSH2 0x12F1 JUMPI PUSH2 0x12F1 PUSH2 0x1664 JUMP JUMPDEST DUP1 DUP3 MUL DUP2 ISZERO DUP3 DUP3 DIV DUP5 EQ OR PUSH2 0x12F1 JUMPI PUSH2 0x12F1 PUSH2 0x1664 JUMP JUMPDEST PUSH1 0x0 DUP3 PUSH2 0x16C1 JUMPI PUSH4 0x4E487B71 PUSH1 0xE0 SHL PUSH1 0x0 MSTORE PUSH1 0x12 PUSH1 0x4 MSTORE PUSH1 0x24 PUSH1 0x0 REVERT JUMPDEST POP DIV SWAP1 JUMP JUMPDEST DUP1 DUP3 ADD DUP1 DUP3 GT ISZERO PUSH2 0x12F1 JUMPI PUSH2 0x12F1 PUSH2 0x1664 JUMP JUMPDEST PUSH1 0x0 PUSH1 0x20 DUP3 DUP5 SUB SLT ISZERO PUSH2 0x16EB JUMPI PUSH1 0x0 DUP1 REVERT JUMPDEST DUP2 MLOAD DUP1 ISZERO ISZERO DUP2 EQ PUSH2 0x530 JUMPI PUSH1 0x0 DUP1 REVERT JUMPDEST PUSH1 0x0 JUMPDEST DUP4 DUP2 LT ISZERO PUSH2 0x1716 JUMPI DUP2 DUP2 ADD MLOAD DUP4 DUP3 ADD MSTORE PUSH1 0x20 ADD PUSH2 0x16FE JUMP JUMPDEST POP POP PUSH1 0x0 SWAP2 ADD MSTORE JUMP JUMPDEST PUSH1 0x0 DUP3 MLOAD PUSH2 0x1731 DUP2 DUP5 PUSH1 0x20 DUP8 ADD PUSH2 0x16FB JUMP JUMPDEST SWAP2 SWAP1 SWAP2 ADD SWAP3 SWAP2 POP POP JUMP JUMPDEST PUSH1 0x20 DUP2 MSTORE PUSH1 0x0 DUP3 MLOAD DUP1 PUSH1 0x20 DUP5 ADD MSTORE PUSH2 0x175A DUP2 PUSH1 0x40 DUP6 ADD PUSH1 0x20 DUP8 ADD PUSH2 0x16FB JUMP JUMPDEST PUSH1 0x1F ADD PUSH1 0x1F NOT AND SWAP2 SWAP1 SWAP2 ADD PUSH1 0x40 ADD SWAP3 SWAP2 POP POP JUMP INVALID LOG2 PUSH5 0x6970667358 0x22 SLT KECCAK256 INVALID 0xE 0xAB PUSH14 0x7D5252FE03B27FF6AA4732132445 DUP16 0xAD GAS EXTCODESIZE GASPRICE PUSH9 0x39FF673CA4E91EB364 PUSH20 0x6F6C634300081300330000000000000000000000 "},"methodIdentifiers":{"FEE_DENOMINATOR()":"d73792a9","MINIMUM_LIQUIDITY()":"ba9a7a56","SWAP_FEE()":"768aebde","addLiquidity(uint256,uint256,uint256)":"422f1043","getAmountOut(uint256,uint256,uint256)":"054d50d4","getCurrentTUSDCPrice()":"3162904b","getCurrentXFIPrice()":"36768401","getReserves()":"0902f1ac","getTUSDCAmountIn(uint256)":"9daebecc","getXFIAmountIn(uint256)":"65175d29","liquidityBalance(address)":"dd296480","owner()":"8da5cb5b","pause()":"8456cb59","paused()":"5c975abb","removeLiquidity(uint256,uint256,uint256)":"857620e1","renounceOwnership()":"715018a6","reserveTUSDC()":"a5e09ac3","reserveXFI()":"c72e3fdb","swapTUSDCForXFI(uint256,uint256)":"11c2591b","swapXFIForTUSDC(uint256)":"3e642714","tUSDC()":"c708aa40","totalLiquidity()":"15770f92","transferOwnership(address)":"f2fde38b","unpause()":"3f4ba83a","withdrawFees()":"476343ee"}}}}}